:020000022000DC
:1060000000000120B5620200DD620200DF620200D2
:10601000E1620200E3620200E562020000000000AB
:10602000000000000000000000000000E762020025
:10603000E962020000000000EB620200ED62020073
:106040007DAF0200EF62020029B502001DB7020019
:1060500099B50200EF620200E1AF0200EF620200B8
:10606000EF620200EF620200EF620200EF620200E4
:10607000EF620200EF620200EF620200EF620200D4
:10608000EF6202009D720200EF620200EF62020006
:1060900065730200EF620200993A0300EF620200AA
:1060A000EF620200EF620200EF620200EF620200A4
:1060B000EF620200EF62020000000000000000003A
:1060C000EF620200EF620200EF620200EF62020084
:1060D000EF620200EF620200EF62020000000000C7
:1060E00000000000000000000000000000000000B0
:1060F00000000000000000000000000000000000A0
:10610000000000000000000000000000000000008F
:10611000000000000000000000000000000000007F
:10612000000000000000000000000000000000006F
:10613000000000000000000000000000000000005F
:10614000000000000000000000000000000000004F
:10615000000000000000000000000000000000003F
:10616000000000000000000000000000000000002F
:10617000000000000000000000000000000000001F
:10618000000000000000000000000000000000000F
:1061900000000000000000000000000000000000FF
:1061A00000000000000000000000000000000000EF
:1061B00000000000000000000000000000000000DF
:1061C00000000000000000000000000000000000CF
:1061D00000000000000000000000000000000000BF
:1061E00000000000000000000000000000000000AF
:1061F000000000000000000000000000000000009F
:1062000010B5054C237833B9044B13B10448AFF3F0
:1062100000800123237010BDC02600200000000074
:106220001852030008B5034B1BB103490348AFF3F1
:10623000008008BD00000000C426002018520300A2
:10624000154B002B08BF134B9D46A3F5803A002148
:106250008B460F461348144A121A0DF0F9FD0F4BE6
:10626000002B00D098470E4B002B00D09847002001
:10627000002104000D000D48002802D00C48AFF3A7
:1062800000800DF087FD2000290006F0DDFD0DF0F7
:106290006DFD00BF000008000000012000000000AC
:1062A00000000000C0260020DC37002000000000B5
:1062B000000000000649074A074B9B1A03DD043B18
:1062C000C858D050FBDC04F055FAFFF7B9FF0000C6
:1062D0005C53030018220020C0260020FEE7FEE7E2
:1062E000FEE7FEE7FEE7FEE7FEE7FEE7FEE7FEE786
:1062F000F0B595B0002415460F4608461E4604F03A
:10630000F9F8384623460895082205A91A9D0996EA
:106310000D950A948DF82C400C9404F03FF99DF8EB
:1063200014308DF81140DDE9061003F00302012A54
:10633000CDE9020127D0022A04D0384604F0DEF865
:1063400015B0F0BDBDF81650C3F3C2038DF8103080
:10635000AD090826082D2C4628BF082433462246BE
:106360000EA9384604F01AF92D1B214608AB02AAE3
:106370000EA8264400F0BCFD002DEBD1384604F0F9
:10638000BDF815B0F0BDBDF81460059DC6F38316C9
:10639000C3F3C204B2000EA9384608238DF810409A
:1063A000C5F3952504F0FAF808AB324628460EA945
:1063B000009302AB00F0F6FC384604F09FF815B0ED
:1063C000F0BD00BF014B01221A707047202700204A
:1063D000704700BF00B583B0044B0093044A4023CC
:1063E000FFF786FF03B05DF804FB00BFF563020012
:1063F000E026002038B50E480E4D03780E4CEB5CBD
:106400000025D2B2257053B90C3005F093FD58B970
:106410000A4B1B7813B12378002BFCD038BD043015
:1064200005F0CCFF0028F3D000F00EFEF0E700BF2F
:1064300018220020B437002020270020DC2600206E
:1064400070B51348134A0378D35C88B0DBB90C30BD
:1064500005F00AFD104D0FCD6C460FC495E80F00F6
:1064600008AD142645F8206D84E80F002946002267
:10647000074804F073FC08B100F0E6FD074B00226A
:106480001A7008B070BD043005F030FFE2E700BFBD
:1064900018220020B4370020A8410300DC26002089
:1064A00070B50D4D0FCD88B06C460FC495E80F0048
:1064B00008AD142645F8206D84E80F002946074AE8
:1064C000074804F04BFC08B100F0BEFD054B01226B
:1064D0001A7008B070BD00BFA8410300C563020078
:1064E00018220020DC26002010B5054CFFF7D8FF4D
:1064F0002046042100F014FC0123637210BD00BF8C
:106500002C220020F0B5314D85B005F5836002F0F6
:10651000DFFE05F2144002F0DBFED5E9012702EAB6
:106520000704E31C05EB830319788E0701F00400D0
:106530000ED0C8B101F00301012935D0022902F1C2
:106540000200EED15A8800EB921202EA0704E8E753
:10655000561C0028EED159881A8806EB911606EBD6
:10656000921202EA0704DCE705EB8404531CE1689D
:1065700001913B4005EB830301F003010129DE6833
:1065800002F102041AD0022916D1BDF806309B0987
:106590000333360C04EB93040D4802F0A5FE00B162
:1065A0006C60304605B0F0BD1B880232C3F3831324
:1065B0001A4402EA0704B4E70646EDE7BDF80430E2
:1065C000C3F38313360C1C44E6E700BFF427002016
:1065D000082C002008B50E4B0E480022FF21C3F8FE
:1065E00018249960C3E90022C3F8142483F82024F6
:1065F00003F03CFF58B9084A084BD21AD20806D01B
:106600000749034621F8233001339A42FAD108BDE5
:10661000F427002014530300145303008452030092
:106620006426002021B9134A02EBC00000687047BD
:1066300030B411490F4C091BC90816D00F4B5A88AA
:10664000824218BF002205D111E0DD88854203F1A6
:10665000040305D001329142F7D1002030BC7047CD
:1066600004EBC200006830BC70470846F6E72046DD
:10667000F8E700BF8452030014530300642600208F
:10668000094B013903EBC00003290BD8DFE801F007
:10669000020806040220704740797047007970476D
:1066A0000420704700207047845203002DE9F04316
:1066B00083B002AB002203F8012DDFF8DC9007461F
:1066C00018468846D9F8084001F00CF9D9E901329A
:1066D000D9F80060134401339B1B012B58D809F2F1
:1066E0001C450121284602F0CFFDFFF70BFF0146B4
:1066F000284602F0C9FDD9E90132D9F80010134447
:1067000001335B1A012BECD90A4003320523023115
:106710009DF8070049F82230C9F8001001F008F987
:1067200000211C4802F076FD80F31000731C23400A
:1067300009EB830300043440033440EA1740D86077
:1067400019F8243067F3C50309F8243039F82430E8
:106750006FF3891329F8243059F8242068F39F2215
:106760001346012161F301036FF3820349F82420EA
:1067700009F8243099F820341BB906E000F00EF82F
:1067800018B1D9E900329A42F8D103B0BDE8F083DC
:106790003146B9E7102C0020F42700202DE9F047FE
:1067A0008F4D002384B0C5F81834BFF34F8FD5E95F
:1067B00001462B680CE037B301F0030101294FD0EB
:1067C000022903D15288023404EB9214A34215D952
:1067D00004EA0600C21C05EB8202117811F0030FD7
:1067E00001F00407E7D1002FE6D151881288013467
:1067F00004EB911404EB9214A342E9D800206B60DF
:1068000004B0BDE8F08705EB8000631CC26801920C
:10681000334005EB830302F00302DB680293022A94
:1068200004F1020800F08380012A1FD0D5F810443B
:1068300034B1236820469B6898476468002CF8D1DF
:10684000684B69491888000440F00200FFF72EFFEA
:10685000D5E90030C01A18BF012004B0BDE8F087A8
:1068600012880234C2F383121444AFE7BDF8042047
:106870005E48C2F38313062B28BF062363F38912F5
:1068800002339900ADF8042003F0F2FD81460028A0
:10689000CCD003F02FFE3B46082201A9484603F066
:1068A0004FFEBDF8043013F4707F00F097806FF056
:1068B000010AAAEB040A082406EA08010331234668
:1068C000042205EB8101484603F03AFEBDF804308E
:1068D00008F101070AEB0702C3F383139342B8469A
:1068E00004F10404E8D8D5F81834002B6BD1D5F89E
:1068F000104454B1637A20464946002B5FD0236888
:106900001B6898476468002CF4D1484603F0F6FDF4
:1069100004A8002300F80D3D00F0E4FFD5F818347A
:1069200003B96F609DF8030001F002F890E7BDF82D
:1069300006302E489C09502CA24628BF4FF0500A22
:106940006AF38F130AF10801ADF8063003F090FDE9
:10695000814600283FF46AAF03F0CCFD3B4626EAAF
:1069600008070137082201A94846BF0003F0E8FDE7
:10697000BA4519D95FFA8AF34FB306EA0801DB1B5F
:10698000033105EB8101DEB23A460823484603F0A5
:10699000D7FD324607F108031549484603F0D0FDFC
:1069A000033408EB94079EE706EA0801033105EB80
:1069B000810152460823484603F0C2FDF0E76468AF
:1069C000002C97D1A1E7484603F098FD40E75246D6
:1069D00008230749484603F0B3FDE1E7474682E74D
:1069E000F42700207C260020D44103001453030028
:1069F000002800202DE9F04782B002AB002403F804
:106A0000014DDFF8ECA00746184691468846DAF8B3
:106A1000084000F067FFDAE90132DAF80060134459
:106A200001339B1B022B5ED80AF21C45012128462C
:106A300002F02AFCFFF766FD0146284602F024FC1E
:106A4000DAE90132DAF80010134401335B1A022B41
:106A5000ECD90A400332033145239DF807004AF878
:106A60002230CAF8001000F063FFB31C23400AEB89
:106A7000830300211D48C3F80C9002F0CBFB80F388
:106A80001000731C23400AEB8303000434400334DA
:106A900040EA1740D8601AF8243067F3C5030AF8B3
:106AA00024303AF82430012161F389132AF8243084
:106AB0005AF8242068F39F22134661F301036FF311
:106AC00082034AF824200AF824309AF820341BB9AB
:106AD00006E0FFF763FE18B1DAE900329A42F8D116
:106AE00002B0BDE8F0873146B3E700BF102C0020AC
:106AF000F42700202DE9F04F83B002AD002405F803
:106B0000014D3B4C8046284693469A468946A568E7
:106B100000F0E8FED4E90132276813440133DB1B9F
:106B2000032B63D804F21C460121304602F0ACFB73
:106B3000FFF7E8FC0146304602F0A6FBD4E901323B
:106B40002168134401335B1A032BEDD90A40033249
:106B5000852344F8223004319DF80700216000F0BD
:106B6000E7FEBA1CFB1C2A402B4004EB820204EB1C
:106B7000830300211F48C2F80CB0C3F80CA002F038
:106B800049FB80F310007B1C2B4004EB83030004C3
:106B90003D40033540EA1840D86014F8253068F3CA
:106BA000C50304F8253034F82530022262F3891336
:106BB00024F8253054F8252069F39F22134601213B
:106BC00061F301036FF3820344F8252004F82530B4
:106BD00094F820341BB906E0FFF7E0FD18B1D4E9C2
:106BE00000329A42F8D103B0BDE8F08F3946ADE7E4
:106BF000F4270020102C00202DE9F04F83B002AEC6
:106C0000002406F8014D3E4C8046304693469A4695
:106C1000A568894600F066FED4E90132276813446E
:106C20000133DB1B042B69D804F21C4601213046DA
:106C300002F02AFBFFF766FC0146304602F024FB17
:106C4000D4E901322168134401335B1A042BEDD9D6
:106C50000A400332C52344F8223005319DF807006D
:106C6000216000F065FEB81CFA1C28402A403B1D3C
:106C70002B4004EB800004EB820204EB8303C0F89A
:106C80000CB00021C2F80CA01E480C9ADA6002F089
:106C9000C1FA80F310007B1C2B4004EB830300043B
:106CA0003D40033540EA1840D86014F8253068F3B9
:106CB000C50304F8253034F82530032262F3891324
:106CC00024F8253054F8252069F39F22134601212A
:106CD00061F301036FF3820344F8252004F82530A3
:106CE00094F820341BB906E0FFF758FD18B1D4E939
:106CF00000329A42F8D103B0BDE8F08F3946A7E7D9
:106D0000F4270020102C0020044BD3E900239A42E2
:106D100001D0FFF743BD0020704700BFF4270020DB
:106D200030B4154DD5F81044002154B1237A8B426C
:106D300013D0234602E01A7A8A420ED05B68002BF9
:106D4000F9D10172D5F810347BB15B684360D5F896
:106D50001034586030BC0846704701310A29E4D12C
:106D60004FF0FF31084630BC7047C5F8100443604F
:106D700030BC0846704700BFF427002038B5084BE8
:106D8000D3F81044012583F820543CB12368657280
:106D900020465B6898476468002CF7D138BD00BF77
:106DA000F42700202DE9F04784B01D460C9C0023F9
:106DB00094F80C802373EB8881460E461746002B0F
:106DC00040D1297A05290ED06B7AA88873BB404B35
:106DD00053F821A00021FFF725FC524603463D4908
:106DE000204602F0F9FA062F09D8DFE807F0046A16
:106DF0004249525D33004946204602F0EDFA2B7AB3
:106E0000052B05D06B7A5BB93349204602F0E4FAD2
:106E1000204602F0D5FA84F80C8004B0BDE8F08773
:106E20002E4A2F49204602F0D7FAEDE7FFF728FC5B
:106E30002C4B2B4953F82020204602F0CDFA297A1A
:106E4000A888C4E7254A00922749284A204602F02C
:106E5000C3FAB6E7D6E90410D6E900230390D6E9D1
:106E600002070291CDE900074946204602F0B4FA34
:106E7000C5E74946D6E90023204602F0ADFABEE751
:106E8000B168D6E9002320460091494602F0A4FAF1
:106E9000B5E7D6E90201D6E9002301910090494601
:106EA000204602F099FAAAE7D6E90371B068D6E95C
:106EB00000230291CDE900074946204602F08CFAF2
:106EC0009DE732684946204602F086FA97E700BF00
:106ED00074420300644203007042030058420300FE
:106EE00060420300004203004042030038420300B6
:106EF000082900D970472DE9F04F1D469046002320
:106F00002A7B2B7385B0B8F80630039207460E46ED
:106F1000002B77D198F80810052911D098F809307E
:106F2000B8F80400002B5FD13A4B53F82140002100
:106F3000FFF778FB224603463749284602F04CFA11
:106F4000DFF8F4B0DFF8F490002405E03A5D013496
:106F500002F042FA082C09D0A64249462846F5D844
:106F60005946013402F038FA082CF5D12B49DFF8E4
:106F7000D090DFF8D0B0284602F02EFA002411E0BD
:106F800017F804A00CF02AFF50445946437813F038
:106F9000970F14BF52462E222846013402F01CFAE5
:106FA000082C08D0A64249462846E9D8013402F008
:106FB00013FA082CF6D198F80830052B02D098F86F
:106FC00009305BB91649284602F006FA284602F055
:106FD000F7F9039B2B7305B0BDE8F08F114A1249F6
:106FE000284602F0F9F9EDE7FFF74AFB0F4B0E498F
:106FF00053F82020284602F0EFF998F80810B8F866
:10700000040091E7074A009209490A4A284602F01B
:10701000E3F97FE774420300644203003042030057
:107020007042030058420300604203000042030024
:1070300040420300384203002C4203002442030074
:107040006C4203003442030000B585B00023039076
:10705000194601AA44F20100CDE9013300F004F819
:1070600005B05DF804FB00BF10B572B6FFF786FEF1
:10707000FFF74AFE0028FBD1104C1149208800047C
:1070800040F00100FFF712FB0E4B1B68DB0700D539
:1070900000BE20880C49000440F00200FFF706FB08
:1070A000BFF34F8F09490A4BCA6802F4E0621343E9
:1070B000CB60BFF34F8F00BFFDE700BF7C260020F1
:1070C000E0420300F0ED00E0EC42030000ED00E0E0
:1070D0000400FA05F0B412F0030412D14B1CDB00DB
:1070E0000A4D0B4E0B4F34709BB213442B600A4E6B
:1070F0000A4D0B4B28803A60347019802046F0BC52
:10710000704707242046F0BC704700BF1C2C0020AD
:10711000182C0020202C0020282C0020242C0020BB
:10712000262C00202DE9F0472D4F3B888B4282B062
:107130003CD3054602A84FF0000800F8018D164622
:107140000C4600F0CFFB274B274A284819781378C4
:10715000B0F800C09DF80700DBB2634538BF0133CB
:10716000C9B238BF5FFA83F8414523D092F8008056
:107170001378DFF88090DBB29C4586BF0133DBB229
:1071800000235FFA88F8137000F0D2FBD9F80030C2
:107190000FFA88F24FEAC20A43F83260534405B14D
:1071A00074B90020988002B0BDE8F087092002B0D1
:1071B000BDE8F08700F0BCFB042002B0BDE8F0871A
:1071C0000B4B38881B68294608FB003022460CF020
:1071D00034FED9F800309A440020AAF80440E2E7CF
:1071E000242C0020282C0020182C0020262C0020E5
:1071F0001C2C0020202C00202DE9F84F1B4C1C4D8E
:1072000022782B789A4226D0DFF86CA0DFF86C90B9
:10721000184FDFF86CB04FF000082378DAF8002040
:107220003888D9F80060DBB20FFA83FE02EBCE019A
:1072300003FB0060898852F83E3098472378BBF8FA
:107240000010DBB25A1C9942D2B206D922702378C0
:107250002A789A42E1D1BDE8F88F84F8008022783C
:107260002B789A42D9D1BDE8F88F00BF282C002096
:10727000182C0020242C0020202C00201C2C002066
:10728000262C0020082910B5044602D00020FFF764
:10729000DBFED4E90030BDE8104018472DE9F0418D
:1072A000284A294B0024C2F84041C2F84441C2F8A0
:1072B0004841C2F84C41C2F80041C2F804411B6881
:1072C00082B033B32149D2F804550A68204EAD1A72
:1072D0001A6825F07F45AA4227460CD8197CD3F8B6
:1072E0001C80AD1A1444B9B9B8F1000F03D043465D
:1072F0001A68AA42F2D91749174A0B7812789A42AB
:1073000019D01649164A41F823404FF48013C2F8A9
:10731000003102B0BDE8F0811F74D3E905320821C5
:107320000192684632460093FFF7FCFE0028DBD04E
:10733000FFF78AFED8E7531CDBB2022B08BF0023FD
:107340000B70DEE7001001404C2D0020482D00207E
:1073500085720200452D0020442D00203C2D002088
:1073600000E100E02DE9F04F8C4A8D49137809784F
:10737000DFF85082994285B0D8F800A000F07B81F8
:107380000133DBB2022B08BF002386481370864A04
:10739000076852F823107B1823F07F430024036012
:1073A000534626462046A446ABB11A688A4200F2EC
:1073B0006581DC68C3F800C0891A1044DA6934B109
:1073C0003D1825F07F45C3E90154DE611E46134692
:1073D0000124002BE9D1002C40F07C810123009393
:1073E000724B734FDFF8E09143F001030193554670
:1073F0004FF0000B46B3D6E901C13446F669694B3C
:107400006C481A68ACEB020323F07F43834248D8F0
:107410000B44236000220121C4E90122E2612174AE
:10742000002D5DD02A689A424DD2284603E00A68B2
:107430009A424FD20846C1699B1A0029F7D12360AE
:10744000E161C461002ED6D178783978884264D061
:107450000B4603EB43034C1CBA7807EBC303E1B2C2
:107460008A421A79397004BF00213970022A9C6857
:1074700044D0032A38D0012AE8D1227C002AE5D161
:10748000D3F80CC0C4F804C01969A1605869E06061
:1074900099F800009B69A3610028B0D0626094460F
:1074A000ADE7A2EB0C0222F07F428A4202D28B1A95
:1074B0002360AFE700230122C4E90033A360E36146
:1074C00022746DB12A68C8F80040D31A2B60E561B8
:1074D00025468FE7D21A0A602360E161C461B1E7F3
:1074E000C8F80040254685E7002DAFD000232B7457
:1074F000ED69002DFBD1C8F80050A5E74DB1AC42B5
:107500002B4603D1E4E094422FD01346DA69002AD7
:10751000F9D10023237488429AD1BBF1000F01D125
:10752000554553D0002D56D1234E244A1F4C4FF4BD
:1075300080334FF400310127C2F880103C43C6F875
:1075400048334FF43C60C6F808337760A047154BCA
:10755000B7604FF43C601D60A047194B1D700023BD
:1075600089F8003005B0BDE8F08FA34200F09180AB
:10757000E0692168D861002800F086802A46036807
:107580000B440360AA424FF00003397878782374E3
:107590001CBF15464FF0010BBDE700BF442D002076
:1075A000452D0020482D00203C2D002000430300E5
:1075B0002C2C0020FEFF7F000010014000E100E0C5
:1075C000392D00204C2D0020382D0020009B002B51
:1075D000C5D0002DA8D0434B434A1C68D2F804659F
:1075E000424FD5F800A03978331B23F07F43DD1CD0
:1075F000B9B93F493F4B4FF48030C2F844034FF0D4
:107600000108C2F804034FF40030C1F8800143F0D0
:1076100001030860C2F800804FF43C60984787F887
:107620000080AA452CBF04EB0A0363192E4923F0FE
:107630007F43C1F84035D1F80425921B9B1B22F0F3
:107640007F4223F07F4303329A4288D9294BD1F8F5
:107650000425C1F8402543F001034FF43C609847EE
:10766000234B4FF40032C3F80021002389F8003087
:1076700005B0BDE8F08F00260096B1E674BB521A43
:107680001A6001230093ABE60023397878782374DD
:1076900041E71946EA69C8F8002092B9CDE90231FC
:1076A000114BDFF840C001209860019B89F8000071
:1076B000CCF800204FF43C609847DDE90231D8F85F
:1076C0000020C8690968D86100287FF458AF59E7DD
:1076D0002946DFE7C8F800309A467FE6C8F8003050
:1076E0009A46CCE7482D002000100140392D00209B
:1076F00000E100E0004303002DE9F8431F4D204E58
:10770000204FDFF898804FF480334FF400324FF071
:1077100001090024C6F8802047EA0907C5F8483364
:107720004FF43C60C5F80833C5F80490B847C5F875
:1077300008904FF43C60C8F80040B847124A134B19
:1077400013491C601470134B134A0C700B211470F6
:107750001C8099704FF48012E023C6F8802186F8CF
:1077600014333260C5F8084586F81133D5F804356E
:10777000C8F800302046BDE8F88300BF0010014083
:1077800000E100E000430300392D00204C2D0020D3
:10779000442D00202C2C0020452D0020482D0020B9
:1077A000074B9B784BB132B128B10368187C20B9E4
:1077B00059745A617047072070470820704700BF0E
:1077C0002C2C00202DE9F047264CA37882B0002B0A
:1077D0003CD000283AD004293CD94369002B35D04D
:1077E000814602A899F811300026012B00F8016D9E
:1077F0000CBF8846B04617468A4600F073F8637897
:10780000A17822789DF807005D1CEDB2A94208BF5F
:107810003546AA4222D003EB430304EBC303012104
:10782000114AC3F808901971D2F804256570C3E9AC
:10783000032AC3E9058700F07BF80C4B4FF4801254
:107840003046C3F8002102B0BDE8F087082002B03E
:10785000BDE8F087072002B0BDE8F08700F068F8C7
:107860000420F0E72C2C00200010014000E100E093
:10787000F0B51A4CA37883B043B338B343692BB344
:10788000064602A8002500F8015D357400F02AF8CC
:107890006278A77821789DF80700531CDBB29F42DD
:1078A00008BF2B46994214D002EB420204EBC202FD
:1078B000022196601171637000F03AF8084B4FF4A2
:1078C00080122846C3F8002103B0F0BD082003B0A1
:1078D000F0BD00F02DF80420F9E700BF2C2C0020AB
:1078E00000E100E070B4EFF3108472B60D4B9A68BB
:1078F000AAB90D490D4E01259D60D1F88050354043
:107900001D60C1F88060D1F884505D604FF0FF3396
:10791000C1F88430027004B962B670BC70470123AC
:107920000370F8E7A837002000E100E0FC06FFBD87
:10793000094B9A687AB170B910B4EFF3108172B63E
:10794000064A1C6814605C685460986001B962B6AD
:107950005DF8044B70477047A837002000E100E055
:10796000F0B443681BB1384AD468A34246D200231E
:10797000364F0B807A684FF0010C02F580544FF6B9
:10798000FF76083294420ED8BCF1020FA1F800C075
:1079900007F1140754D07A6802F5805408329442F3
:1079A0004FF0020CF0D913680133EDD05388033344
:1079B00002EB83039C42E7D39588B5420AD0158831
:1079C00045B1956803689D4211D05388033302EB9B
:1079D0008302D7E79C42D7D91A6801321A46D3D01E
:1079E0005D88033503EB85039C42E5D2CCE7184B59
:1079F00042601B8903810120F0BC704712699342E9
:107A0000B5D813F00305B2D1114A04891289944202
:107A1000ADD104689A689442A9D10C484268934257
:107A200003D902F58052934207D38269934207D962
:107A300002F58052934203D201250D800120DBE73D
:107A40000020F0BC704700BFAC260020902D002025
:107A5000742D0020F0B5334C334DB4F802C0626889
:107A60004FEA8C0606EB0C0305EB830383B05968E1
:107A700001F58050002A52D05388033302EB830271
:107A8000904213D8664405EB8605EB68002B3DD089
:107A9000264B2748196802229A80052500230122D7
:107AA000257003B0BDE8F04002F0CCB81368013394
:107AB000E8D05388033302EB83038342E2D84FF6C6
:107AC000FF7E9788774514D0178897B162605388F6
:107AD000164D1748AE882968033300259BB20095E0
:107AE0009B0001EB86010325257002F017F803B017
:107AF000F0BD9842C6D91A6801321A46C2D05F88D2
:107B0000033703EB87039842DBD2BBE70848042521
:107B10000122257003B0BDE8F04002F093B801F1F6
:107B20000802ADE7742D0020902D0020482E002083
:107B3000AC2600202DE9F04FAC4E89B004464FF63C
:107B4000FF773568002D00F0D9802A78531E052B69
:107B500067D8DFE803F05931311D1D03002C40F0D8
:107B6000C380DFF8B0C29CF80C209CF80030002ADB
:107B700000F05281013B8CF80C40062B51D8DFE815
:107B800013F0E703F8020302D8015000FB02C80219
:107B9000002C40F0A9802B79012B00F04A81C0F025
:107BA000DE800DF10C08022B0394C8E90244C8F8EA
:107BB00010403ED120463DE0B5F81490AB7D002C3E
:107BC00000F0A380022BEA8840F2C4804FEA8904C7
:107BD000DFF8388204EB090108EB8101D31C0A8924
:107BE00013440B81EA884C4408EB84040DF10C0823
:107BF0006389033B9B1A00226381C8F80820039223
:107C0000C8E90322012015E0002C40F097802B7971
:107C1000032B00F2DF80DFE813F080013D01550106
:107C2000600100230DF10C08C8E90333C8F80830DF
:107C300003930F2004902B78023B042B0AD8DFE833
:107C400003F0472F2303430004238DF80C30EB8807
:107C5000ADF81830664C04F1100554F8043B40466A
:107C600003B19847A542F8D16249634800243460C3
:107C700001F05EFA0121614801F012FB00287FF457
:107C800060AF09B0BDE8F08F03238DF80C30EB88AE
:107C9000ADF818302B89ADF81A30EB680593D9E7A9
:107CA00002238DF80C302B89ADF81830AB88ADF875
:107CB0001A30EB680593AB7DA3F10603B3FA83F3A7
:107CC0005B098DF81C30C5E705238DF80C30C1E742
:107CD00001238DF80C302B89ADF81830AB88ADF846
:107CE0001A30EB680593B5E70DF10C080023C8F8CE
:107CF00008300393C8E9033301209BE73D493E4820
:107D000001F0E8F9054630601FE74FEA8904DFF823
:107D1000FC8004EB090108EB8101B1F808A0496877
:107D200001EB8A0A062B00F2B682DFE813F0CC01E1
:107D30009301A501B80141016C0186010DF10C0808
:107D40002F4A002353600393C8E90233C8F8103068
:107D500001206FE7DFF8B4804FEA890443E702238C
:107D60002B71CDE904440DF10C08EB6803934046F8
:107D70000DF10A01FFF7F4FD002800F0C18104991C
:107D8000204A8B88EB800B882B811F4800940423AA
:107D9000BDF80A4001F0C2FE002840F0DE821B4B15
:107DA00004EB840403EB84040123237469E70123B7
:107DB0009A001A4408EB82030020596800900823B7
:107DC00008F82200124A104801F0A8FE00283FF4EB
:107DD00058AF35680A4A0DF10C080023536003932D
:107DE000C8E90233C8F810300E2023E78C2D00209C
:107DF0005C2D0020842D002038220020442E0020FD
:107E00006C2D002008430300AC260020902D00209C
:107E10000C430300742D0020072B00F28382DFE85F
:107E200013F0FA01810281029D01E60178017801D7
:107E3000C001BF4B1B78002B00F05381DFF8F4E248
:107E4000BEF80490B9F1010F15D8DFF80C8309EBE7
:107E5000890208EB8202043212F8043C002B00F085
:107E6000088209F1010399B201299946AEF804305C
:107E700002F11402F0D90DF10C0808220021AD48DE
:107E80000BF0E6FF0020C8F808000390C8E90300E3
:107E90003568CFE6DFF8C08298F80030022B00F09A
:107EA000688298F81430022B81D0A14B0DF10C0898
:107EB000002001221A7003905860C8E90200C8F837
:107EC0001000B7E69C4A9D481168002302242B71DC
:107ED0009480012201F0B6FE78E7974C984A216819
:107EE0009648DFF874824FF0000985F80490082363
:107EF000CDF8009001F012FE924B25685B88A188B6
:107F000003EB830308EB830208F823905368236094
:107F1000022355601181A38058E7874B8A4A19686C
:107F2000864801232B7100230093082301F0F6FDFE
:107F30004CE7BCF80230DFF8208203EB830308EB48
:107F40008308D8F80C30002B00F0DC817A4B7B489A
:107F5000196802229A8005228CF800200023012251
:107F600001F070FE00283FF48CAE0DF10C080023E8
:107F700041F61D523568C8F808300393C8E9033349
:107F8000904208BF184655E6DCF804206A4853883A
:107F900084880168694801EB84010333002400945C
:107FA0009BB203249B008CF8004001F0B7FDD9E799
:107FB000664BAA6966491A604FF0000B1846C3F871
:107FC00004B0FFF7CDFC002800F0CA810223AB7596
:107FD00004235146CDF800B0EA18584801F09EFD40
:107FE00000283FF44EAEAB7DEA88022B4FF00E0026
:107FF00026D84C4408EB8408B8F80A30033B9B1A97
:10800000A8F80A30B1E7524B504AB3F800A05168C3
:108010004A48504A00234FF0060C85F816C00093DA
:10802000042301F07BFD0028DDD10AEB8A0A08EB6E
:108030008A08012388F8103023E6EA8841F61D50AB
:1080400004EB090108EB8101D31C0A8913440B815D
:10805000EA88CEE7032A0CBF052306230022AB756E
:108060000AF104010092042305F10802334801F0EB
:1080700055FD0028B7D104E62B693048002B14BF0A
:10808000032301230022AB750AF1080100920423A7
:1080900005F10C0201F042FD0028A4D1F1E5EB88C6
:1080A0002A6926484FF0010C85F816C04FF0000CE5
:1080B0000AF10C019B00CDF800C001F02FFD002853
:1080C0003FF4DFAD8FE702230022AB75042300925B
:1080D0005146EA18194801F021FD00283FF4D1ADBE
:1080E00081E70DF10C080822214612480BF0B0FE82
:1080F0000394C8E90244C8F810403568022099E5A5
:108100000A200023C8E90033C8E90233C8F8103058
:1081100090E5094B0C4A1968084800230093CCF8F5
:10812000043007238CF80030082301F0F7FC19E72E
:108130006C2D0020582E0020482E0020AC26002058
:108140000C430300742D002014430300502D002025
:10815000542E002008430300902D0020884ADCF8AC
:1081600004109388498803330B44022193808CF8D0
:108170000010FFF76FFCF5E6BCF80220DFF8108274
:108180009300134408EB830806200023D8F804105A
:108190007C4A00938CF8000008237B4801F0BEFC69
:1081A000E0E601238CF800309CF80A304BB1DFF890
:1081B000E081D8F80C3000228CF80A20002B00F067
:1081C000AB809CF80B30002B43D0DFF8C481D8F88B
:1081D000203000228CF80B20002B3AD198F8243064
:1081E000BBB30123ACF80230FFF734FCBAE6BCF8AD
:1081F0000220DFF89C81624C9300991808EB810102
:1082000020684D68B4F804E0486002202560A1F8B9
:1082100008E0A080B5E7DFF87881BCF8081098F88E
:10822000142098F80030B2FA82F252090131B3FA00
:1082300083F35B098CF80B20ACF8081000220121B5
:108240008CF80A30ACF802208CF80C208CF8001066
:10825000ACE70DF10C080020C8F808008CF800000D
:10826000ACF80200CCF804000390C8E903003568BC
:10827000E0E41368DEF8001003F5805C03F1080AFF
:10828000002968D04B88033301EB83018C4505D866
:10829000CEF80040E5E5EA880F20D1E60B6801330F
:1082A000F6D04B88033301EB83039C45F0D38888D9
:1082B000B8421AD0B1F800B0BBF1000F15D0EB886E
:1082C000CEF800108342DBD1002300932F4A2E48C2
:1082D000042301F023FC00284DD109EB890908EBA8
:1082E0008908012388F81030CBE49C45D0D919685F
:1082F00001311946CCD05888033003EB80039C45EC
:10830000D5D2C5E704228CF80020D8F804101E4806
:10831000012201F097FC25E698F81020002A3FF48E
:1083200050AF5FE7013B062B3FF67BAC01A252F852
:1083300023F000BF5183020073810200897F020095
:10834000337F0200237C0200798102001381020046
:108350009CF80A302AE7514698E735680E20D0E6A7
:108360000DF10C080390C8E90200C8F810000A20BB
:1083700060E400231CE535680E200DF10C08C0E612
:10838000482E00200C430300AC26002008430300C5
:10839000902D00204068FFF7CDBB00BF38B5084BDB
:1083A0001A68042A0AD01D68064C024601211846A4
:1083B00044F8252000F068FF002038BD0C2038BDAF
:1083C000502E00205C2D00202DE9F04FA34C8BB0E7
:1083D00022780023CDE90533CDE90733099372B143
:1083E0009F4C04F1100554F8043B05A803B19847CD
:1083F000A542F8D1002528460BB0BDE8F08F201D1E
:1084000002F0FF0600F058FF07460028F2D14FF0B7
:1084100010234FF080525B6911695269DFF8648262
:10842000581C08BF02FB01F3C8F810308D49A3F5B2
:10843000405340460022C8F80C3001F045FB054689
:108440000028D8D11C238C2287498848DFF838A21D
:1084500000F0CAFDD8F80C90DFF83082029609F5DA
:10846000405348464FF0030B2A469946002800F037
:10847000998003687E498B4240F0948043687D492F
:108480008B4200F0058101318B4240F08B80029BD2
:1084900063B102EB820C08EB8C0102260132DAF8A0
:1084A000003008F82C6092B24B600E818168CAF8E7
:1084B00000004FF0020C0131AAF804C000F580530F
:1084C00000F108062CD04189033106EB810083427C
:1084D000C0F0A58060464FF6FF7E0192B6F804C05A
:1084E000F4450FD0B6F800C0BCF1000F0AD0624AC4
:1084F000D6F808C01268944504D95F4AC2F800C093
:1085000071880331084480B2AAF8040071880331ED
:1085100006EB8106B34277D80228019A40F01F810A
:1085200004210F4399451846A0D1BBF1010F7CD916
:10853000FFB2022F79D0062F00F08180002F74D077
:1085400004A94A4800F08AFD1C22044600210BF0D1
:108550007FFC002C00F001810123013F23700A2FD2
:1085600009D8DFE807F019081908160816081C06CC
:108570001C000223237104A93C4800F09BFD01214B
:108580003E4800F075FE00287FF434AFFFF7D2FAC2
:1085900031E701232371EEE700232371EBE7032387
:1085A0002371E8E700F58053014601E08B4214D0C7
:1085B0000E68013601F10401F8D002EB820108EBEC
:1085C00081060BF1FF3B01324FF0030C1FFA8BFBCE
:1085D00092B208F821C07060A4E7DAF8001031B355
:1085E000274E02EB820108EB810C7280022602F119
:1085F000010E08F821601FFA8EF2CCF80400ACF8E6
:10860000086047F001078DE73168013184D0718837
:10861000033106EB810C6345BFF460AF019A4FF460
:108620008061AAF8041008217BE70B25E3E602210C
:10863000AAF804100121CAF800000291E1E7084DF0
:1086400001220023227005F11006636055F8043BF7
:1086500005A803B19847AE42F8D1CBE66C2D0020B7
:108660005C2D002038450300B82D00203822002062
:10867000DEC0ADDEFE011EF1882D0020442E00205C
:10868000742D0020AC260020482E0020902D0020C4
:1086900093000393134408EB830C002108F8231084
:1086A0004FF00203ACF80830CCF8040086680136BD
:1086B00000F5805300F1080140D0408900F1030E1D
:1086C00001EB8E0E73452FD302260192E646B1F8D8
:1086D00004C04FF6FF72944537D0B1F800C0BCF12A
:1086E000000F32D01F4AD1F808C01268944505D94E
:1086F0001C4ABEF80860C2F800C048880644033629
:10870000B6B2AEF808604888033001EB80018B42B6
:1087100019D90868013016D0488800F1030C01EB24
:108720008C0C6345D3D2019A0399114408EB810163
:108730004FF480604FF001060E740881013292B24E
:1087400047F00207EEE6019AF8E74FF001028EF8D3
:1087500010204888BEF80860D0E708254BE60821BD
:10876000DFE600BF882D002008B301B370B582B0EA
:108770000C460DF106010546FFF7F2F8A0B1BDF871
:1087800006000C4B6E6800EB800003EB80000121BB
:108790000C3000F079FD26606B6801220C3300205C
:1087A0006360AA7202B070BD0A2002B070BD0520DD
:1087B000704700BF902D0020E8B110B582B00DF1D8
:1087C00006010446FFF7CCF890B1BDF806300C4A1C
:1087D00003EB830302EB8303DA6872B1A27A62B11E
:1087E000DA680021013A0846DA60A17202B010BDD1
:1087F0000A2002B010BD05207047062002B010BD4F
:10880000902D00201E4B1B78C3B1D0B1CB1C9BB266
:1088100040F2FD32934222D8F0B41A4A16783EB99B
:10882000558914892C441C44A4B2B4F5806F19D323
:10883000147D4CB107231846F0BC7047022318463C
:108840007047052318467047D58B948B2C441C44E5
:10885000A4B2B4F5806FEDD20126374603E00923B8
:10886000184670473746BC003C4402EB84022B4458
:1088700053810680418000231846F0BC704700BF3A
:108880006C2D0020902D0020134B1A78D2B1034696
:1088900000B30288022A17D810B41048598802EB96
:1088A000820200EB82028C1C508984420EDAC1F5F0
:1088B0007F41FD310024014451811C6020465DF858
:1088C000044B7047022070470420704704205DF875
:1088D000044B7047052070476C2D0020902D002020
:1088E000484B1B78002B32D0002934D00A884FF631
:1088F000FF739A4229D04B883BB34B689B072CD11E
:108900002DE9F043B1F8088008F103039BB240F26F
:10891000FD32934283B01CD83B4A17783FB9568941
:10892000148934441C44A4B2B4F5806F17D3147D69
:108930003CB9D68B948B34441C44A4B2B4F5806FFC
:108940005DD3072003B0BDE8F08304207047022008
:1089500070470920F6E70520704703207047BC46A2
:108960004FEA8C09E14402EB890933440C46054681
:1089700001A92648A9F80A3000F070FB1C2206461F
:1089800000210BF065FA5EB302234FF00009B782B5
:10899000337086F816906368336101211C4800F03B
:1089A00073FCF060238833816388B38001A9A6F843
:1089B0000A90A6F80680154800F07CFB45B1C5F882
:1089C0000490F268134B2A601B8985F80A902B816A
:1089D0000121114800F04CFC044660B10020B1E7D1
:1089E000B9F80A30C8F57F4808F1FD089844A9F89D
:1089F0000A800820A6E7FFF79DF82046A2E7012796
:108A0000BC46ADE76C2D0020902D002038220020C0
:108A1000882D0020742D0020442E0020002A50D0E4
:108A2000364B1B78002B4AD000294AD02DE9F04361
:108A30000C884FF6FF739C4283B046D04B88002BC6
:108A400043D04F6817F003073DD10C46064601A9F5
:108A50002B48B2F80090B2F8028000F0FFFA1C2216
:108A6000054639460BF0F4F9002D32D00223AF75DC
:108A7000A5F814902B7063682B610121214800F048
:108A800003FCE86023882B816388AB8001A9A5F8EB
:108A900006806F811A4800F00DFB36B17760EA68F6
:108AA000194B32601B89B77233810121174800F0DE
:108AB000DFFB0446E8B1002003B0BDE8F0830220EC
:108AC0007047052070470320F6E7042003B0BDE897
:108AD000F0830F4B09EB890903EB8909C8F57F483F
:108AE000B9F80A3008F1FD089844A9F80A8008206E
:108AF000E2E7FFF71FF82046DEE700BF6C2D0020FD
:108B000038220020882D0020742D0020442E0020C3
:108B1000902D0020002836D0484B1B78002B30D0F9
:108B2000002930D00A884FF6FF739A422FD04B8825
:108B30006BB34B689B0728D12DE9F043B1F808903F
:108B400009F103039BB240F2FD32934283B020D877
:108B50003B4A15783DB9578914893C441C44A4B25A
:108B6000B4F5806F17D3147D3CB9D78B948B3C44FC
:108B70001C44A4B2B4F5806F5BD3072003B0BDE8FA
:108B8000F0830220704705207047032070470420BF
:108B900070470920F2E7A846AC464FEA8C056544C9
:108BA00002EB85053B4406460C4626486B8101A92D
:108BB00000F054FA1C22074600210BF049F957B384
:108BC00000250323A7F814803B70BD7563683B61E3
:108BD00001211D4800F058FBF86023883B81638821
:108BE000BB800423A7F80690BB753368BB6101A95D
:108BF0007D81144800F05EFA7560FA68134B3260AC
:108C00001B89B57233810121114800F031FB044604
:108C100058B12846B2E76B89C9F57F4909F1FD09CA
:108C20009944A5F80A900820A8E7FEF783FF20469C
:108C3000A4E74FF00108C446AFE700BF6C2D002049
:108C4000902D002038220020882D0020742D002037
:108C5000442E0020184B1B7823B34FF6FF73984225
:108C60001ED070B582B001A90446144800F0F6F990
:108C70001C22054600210BF0EBF8ADB105230126BF
:108C8000EC8001A92B702E710C4800F013FA3146CC
:108C90000B4800F0EDFA044648B1002002B070BD68
:108CA0000420704702207047082002B070BDFEF714
:108CB00041FF204602B070BD6C2D002038220020FC
:108CC000442E0020194B1B78EBB110B582B001A9DE
:108CD000174800F0C3F91C22044600210BF0B8F835
:108CE0000CB30623237001A9114800F0E3F9114BDE
:108CF0001A7852B90121104800F0BAFA044668B156
:108D0000002002B010BD02207047012201210A4854
:108D10001A7300F0ADFA04460028F1D1FEF70AFFFD
:108D2000204602B010BD082002B010BD6C2D0020FE
:108D300038220020742D0020442E00202DE9F0431D
:108D4000344C2478002C60D03AB333B39F88012F81
:108D50005ED8314C07EB870C013704EB8C0CBFB2AB
:108D60004FF6FF7E4FF000089CF8004074B91C6875
:108D7000DCF8045005F58056002C43D06588033597
:108D800004EB8504B4420BD3C3F80080022F9F800C
:108D90000CF1140C3CD00227E6E70520BDE8F08377
:108DA00025680135F0D06588033504EB8505AE42B2
:108DB000EAD3B4F80490F14515D0B4F80090B9F1B5
:108DC000000F10D01C60A5888542D1D125888D4226
:108DD000CED1A16811601968104B51601B891381B5
:108DE0000020BDE8F083AE42CED92C6801342C4679
:108DF000CAD0B5F8029009F1030905EB8905AE4226
:108E0000D7D2C1E705F10804BCE70220BDE8F08332
:108E10000A20C3E76C2D0020902D0020742D002027
:108E2000334B1B78002B5CD051B34AB32DE9F04192
:108E30009588012D5AD82F4F05EB850307EB830743
:108E400001353B78ADB24FF6FF7C4FF0000E43B1D9
:108E5000022D958007F1140748D03B780225002B9E
:108E6000F6D113687C6804F58056002B3BD05C88F3
:108E7000033403EB8403B34204D3C2F800E0E7E712
:108E8000052070471C680134F7D05C88033403EB7D
:108E90008404A642F1D3B3F80480E04512D0B3F8BD
:108EA0000080B8F1000F0DD013601C888442D9D126
:108EB0009B680B601268104B4A601B890B81002075
:108EC000BDE8F081A642D8D9236801332346D4D027
:108ED000B4F8028008F1030804EB8804A642DAD251
:108EE000CBE70220704704F10803C4E70A20E7E754
:108EF0006C2D0020902D0020742D0020334B1B780A
:108F0000002B5CD051B34AB32DE9F0419588012D77
:108F10005AD82F4F05EB850307EB830701353B78C4
:108F2000ADB24FF6FF7C4FF0000E43B1022D95809D
:108F300007F1140748D03B780225002BF6D11368BF
:108F40007C6804F58056002B3BD05C88033403EB2F
:108F50008403B34204D3C2F800E0E7E7052070477A
:108F60001C680134F7D05C88033403EB8404A64208
:108F7000F1D3B3F80480E04512D0B3F80080B8F123
:108F8000000F0DD013609C888442D9D19B680B6080
:108F90001268104B4A601B890B810020BDE8F081EC
:108FA000A642D8D9236801332346D4D0B4F802802E
:108FB00008F1030804EB8804A642DAD2CBE70220CA
:108FC000704704F10803C4E70A20E7E76C2D00208E
:108FD000902D0020742D002020B119B103680B6082
:108FE000002070470520704799B110B4B2FBF3F42C
:108FF00003FB1424A4B244B9C0E900148460828144
:10900000C38120465DF8044B704709205DF8044B8E
:1090100070470E20704700BF82B050E8022FC18811
:10902000B2EB324F4FF0000317BF92B241EA014159
:1090300042EA014104E04268B2EB324F08BF01232B
:1090400040E80212002AE8D18DF807309DF8073079
:10905000002B0CBF1120002002B0704730B482B04A
:1090600050E8013F9DB2C48925448489A54228BFA8
:109070002D1B0489A54202BFBFF32F8F002207E0FA
:10908000C5EA030540E80154002CE9D14FF0010284
:109090008DF803200193019B9DF803200B602AB1FA
:1090A0000B880068184402B030BC704702F0FF0320
:1090B0001846F8E70A884B889A4201D0002070478A
:1090C00050E8012FC2EA024240E80123002BF7D109
:1090D0000120704730B482B050E8023F1FFAA3F578
:1090E000C488A54202BFBFF32F8F00220DE0C489C0
:1090F00025448489A54228BF2D1BC3EA054540E8C5
:109100000254002CE8D14FF001028DF803200193A6
:10911000019B9DF803200B602AB14B88006818441E
:1091200002B030BC704702F0FF031846F8E700BFFA
:109130000A884B889A4201D00020704750E8022FDD
:10914000C2EA224240E80223002BF7D101207047F7
:1091500001F01F024B09012100EB8300914000F058
:109160006FB800BF01F01F0201234909934000EBD3
:109170008100D94300F070B84B0901F01F0150F88D
:109180002300C84000F00100704700BF2DE9F84FF0
:1091900001F1FF394FEA591300F104090F46064661
:1091A00009EB8309044600254FF0010823686FEAA4
:1091B000030B9BFAABFBBBFA8BFBBBF1200F20D060
:1091C000AB445F450CD81CE02368DB4393FAA3F360
:1091D000B3FA83F3202B05EB030B12D05F4510D9B4
:1091E0000BF01F0A4FEA5B1008FA0AF106EB800049
:1091F00000F01AF820FA0AF0C307E5D45846BDE893
:10920000F88F04344C4505F12005CFD1BB465846B4
:10921000BDE8F88F50E8002F0B4640E8003C9CF07A
:10922000000FF7D11046704750E8002F42EA0103C3
:1092300040E8003C9CF0000FF6D11046704700BF9C
:1092400050E8003F43EA010240E8002C9CF0000F88
:10925000F6D11046704700BF50E8003F03EA010214
:1092600040E8002C9CF0000FF6D11046704700BF7C
:1092700050E8002F02EB010340E8003C9CF0000F97
:10928000F6D11046704700BF50E8003F03EB0102E3
:1092900040E8002C9CF0000FF6D11046704700BF4C
:1092A00050E8003FA3EB010240E8002C9CF0000FC7
:1092B000F6D11046704700BF012350E800CF4CEABA
:1092C000030240E8002191F0000FF6D1604670479C
:1092D000012350E8002F42EA030C40E800C191F05E
:1092E000000FF6D160467047002350E800CF0CEA2B
:1092F000030240E8002191F0000FF6D1604670476C
:10930000B8B130B4D0E90112521A0468D2B2531E77
:109310002160DBB242B101680A685C1E551C0D6019
:109320001370E3B2FF2BF6D103680020187130BC34
:1093300070470E20704700BFF0B583B002AB002528
:1093400003F8015D04461846FEF7CCFAD4E9003173
:109350001A688A4210D9511E19602168A3680F68E3
:1093600012F8015C0A79A68AE068DB1BDBB29A423C
:1093700006FB050538BF0B719DF80700FEF7D8FA0C
:10938000284603B0F0BD00BF30B583B002AB002269
:1093900003F8012D054618460C46FEF7A3FA2A6885
:1093A0001368591C1160E968AA8A641AB4FBF2F4C4
:1093B0001C709DF80700FEF7BBFA03B030BD00BF7C
:1093C000826842B110B50446436901680069984754
:1093D0000023A36010BD70470EB400B582B003999E
:1093E00029B102AA04AB42F8043D00F08BF802B0A8
:1093F0005DF804EB03B070472DE9F84F88469045BF
:10940000174605461E46DDE90AB175D343464FF0BF
:109410000109B3FBF7F39F4209F10109F9D9B145FD
:1094200038BFB14611F0010AAA6802D1BBF1000FA2
:1094300043D1012402E0013E07FB04F4012EFAD8D7
:10944000B8FBF4F18F42F7D92D4E05E0B4FBF7F4E9
:10945000A4B1B8FBF4F1AA68705C531CAB602B6834
:109460009854D5E901329A4204FB1188EED328467C
:10947000FFF7A6FFB4FBF7F4002CEAD1BAF1000F16
:1094800015D0BBF1000F12D0CB4510D92024AB680A
:109490002A68591CA960D454D5E901329A420BF1CB
:1094A000FF3B06D2BBF1000F01D0CB45EFD1BDE8A9
:1094B000F88F2846FFF784FFF4E78B0717D42024A2
:1094C000CB45B6D92B68511CA9609C54D5E9013213
:1094D0009A420BF1FF3B05D2BBF1000FA9D0CB455F
:1094E000F0D1A6E72846FFF76BFFAA68F4E7002E45
:1094F0000CBF30242024E3E74FF001098FE700BFC1
:109500002C430300002900F0F4812DE9F04F0546BB
:1095100085B092460C460B78DFF8A8B501E02378B9
:1095200093B1013483B1252B15D0AA682968501C4A
:10953000A8608B54D5E901329A42F0D32846FFF750
:109540003FFF2378002BECD12B7B002B40F01481C4
:1095500005B0BDE8F08F2146002711F8012B2D2A18
:1095600000F0E180302A00F0E2802B2A00F0D28067
:109570002A2A00F0E080A2F13006F3B2092B03D9C9
:10958000B8E1A3F130060146084606EB860310F861
:10959000012BA2F13004092C02EB4303F1D92E2A4E
:1095A00000F0D5800023013101E011F8012B02F019
:1095B000FB0068280C46F8D0253A532AAFD801A101
:1095C00051F822F0859702001F9502001F950200B6
:1095D0001F9502001F9502001F9502001F950200B3
:1095E0001F9502001F9502001F9502001F950200A3
:1095F0001F9502001F9502001F9502001F95020093
:109600001F9502001F9502001F9502001F95020082
:109610001F9502001F9502001F9502001F95020072
:109620001F9502001F9502001F9502001F95020062
:109630001F9502001F9502001F9502001F95020052
:109640001F9502001F9502001F9502001F95020042
:109650001F9502001F9502001F9502001F95020032
:109660001F9502001F9502001F9502001F95020022
:109670001F9502001F9502001F9502001F95020012
:109680001F9502001F9502001F9502001F95020002
:109690009F9702001F9502001F9502001F95020070
:1096A0001F9502001F9502001F9502001F950200E2
:1096B0001F9502001F9502001F950200B997020036
:1096C000DB9702001F9502001F9502001F95020004
:1096D0001F950200DB9702001F9502001F950200F4
:1096E0001F9502001F9502001F9502001F950200A2
:1096F0002B9802001F9502001F9502009F98020000
:109700001F950200D99802001F9502001F950200C4
:109710009F97020047F004070C46214611F8012BE1
:109720002D2A7FF41FAF47F001070C46F5E747F0FD
:1097300002070C46F1E7DAF800301A1DCAF80020DB
:1097400062781E682E2A04F102007FF42BAF4A785B
:10975000A2F13003092B00F25081002303EB8303B5
:1097600002EB430310F8012FA2F130010929A3F104
:109770003003F3D9014616E7284605B0BDE8F04F9F
:10978000FFF71EBEAB682A68591CA9604FF025017F
:10979000D154D5E901329A42FFF4C1AECEE6DAF8EF
:1097A0000020111DCAF8001011682846CDE9006795
:1097B0001022FFF721FEB2E6DAF80020131DCAF8E6
:1097C0000030AB6829681278581CA860CA54D5E9E3
:1097D00001329A42FFF4A3AEB0E6DAF80020111D80
:1097E000CAF80010D2F8008088EAE872A2EBE872AA
:1097F000092A4FF0010107DDB148A0FB0202D2089F
:10980000092A01F10101F7DC994238BF194689465E
:1098100007F00202002E71D12AB1002B00F04B811B
:10982000FA0700F18D8000268AE0DAF80020131D87
:10983000CAF80030AB6829681768581C3022A86045
:10984000CA54D5E90123934280F02C812A68581C20
:109850007821A860D154D5E90123934280F01D817D
:109860000F2F03D93A4612090F2AFCD84FF0805621
:1098700003E036093FF453AEAB682968B7FBF6F254
:10988000581CA8601BF80200C854D5E90131994260
:1098900006FB1277EDD32846FFF792FDE9E7DAF8E9
:1098A00000301A1DCAF80020D3F80080FB077ED5CF
:1098B0004746A7EB080917F8013B002B5DD0AA68C3
:1098C0002968501CA8608B54D5E901329A42F0D324
:1098D0002846FFF775FDECE7DAF80020111DCAF8FD
:1098E000001011682846CDE900670A22FFF784FDC1
:1098F00015E6704708460026214650E6B8F1000FED
:1099000001DB780700D5013E02B1CBB1F90717D4CE
:10991000002E88D0B14513D220220393A9682B686A
:10992000481CA8605A54D5E90131994206F1FF3626
:109930005DD2002E00F0C180B145EFD1039B4E46B1
:10994000B8F1000FC0F296807A070AD5A9684A1CC0
:10995000AA602A682B205054D5E90121914280F059
:10996000968007F00302022A5FD0CDE900674146E6
:109970000A222846FFF740FDD1E54E457FF6CFADE0
:10998000202705E04E453FF4CAAD002E3FF4C7AD99
:10999000AB682A68591CA960D754D5E901329A42AC
:1099A00006F1FF36EED32846FFF70AFDEAE7B8F1E5
:1099B000000F24D040460AF053FA0746BE4220D991
:1099C000FEB14FF0200902E0BE421AD0CEB1AB6822
:1099D0002A68591CA96002F80390D5E901329A421D
:1099E00006F1FF36F0D32846FFF7EAFCECE72846FD
:1099F0000292FFF7E5FC029A9BE70146D2E5474653
:109A0000DCE708F1FF3818F8013F002B3FF487AD81
:109A1000AA682968501CA8608B54D5E901329A4283
:109A2000F1D32846FFF7CCFCEDE7002B9DD1002EAB
:109A30003FD0B14599D2029323464C46B1461E46CB
:109A4000AA682B68501C4FF03001A8609954D5E9E2
:109A500001329A4209F1FF3908D2B9F1000F26D03C
:109A60004C45EDD13446029B4E467EE72846FFF733
:109A7000A7FCF2E7A9684A1CAA602A682D20505466
:109A8000D5E901219142C8F10008FFF46AAF2846E8
:109A90000293FFF795FC029B63E72846FFF790FCD3
:109AA000AB68DDE62846FFF78BFCAB68CEE6029B91
:109AB0003446002659E71E4642E7039BB3E600BF43
:109AC000CDCCCCCC2C43030010B582B038B1A9B1B9
:109AD00001600B68114602B0BDE8104018470A4A01
:109AE0000A4B10880A4A0B490E24000440F001007A
:109AF0000094FDF781F80E2002B010BD024A034B1E
:109B00001088054AEFE700BF982600203C43030079
:109B1000F0430300F8430300244403002DE9F0411F
:109B200082B0002850D0002A5ED0D0F800C0BCF12E
:109B3000000F63D01C46002B31D04768D7F8048053
:109B4000B3FBF8F708FB1737002F38D18F0721D167
:109B500012F0030F4DD1C768B9420FD22E4A2F4BD6
:109B600010882F4A2F491024000440F0010000946F
:109B7000FDF742F8204602B0BDE8F0814E1E0569AF
:109B80003444AC42EAD8DCF80C40A44602B0BDE84C
:109B9000F0416047204A214B1088234AE2E71E4AE1
:109BA0001E4B1088214A1F490924000440F001007F
:109BB0000094FDF721F8204602B0BDE8F081164A76
:109BC000164B10881A4AEEE7134A144B1088194AAC
:109BD00014490E24000440F001000094FDF70CF835
:109BE000204602B0BDE8F0810B4A0C4B1088124AA7
:109BF000EEE7094A094B1088104AB3E7064A074BBB
:109C0000108808490E4A0824000440F0010000941E
:109C1000FCF7F2FF2046AEE79826002050430300F1
:109C2000F4440300F8430300B84403003444030041
:109C30008C440300F043030084440300D044030039
:109C400078440300F0B583B000283FD0D0F800C0BE
:109C5000BCF1000F48D02AB34768D7F800E00EF1F6
:109C6000FF370F422DD1C768B9420ED2254A264B85
:109C70001088264A26491024000440F00100009470
:109C8000FCF7BAFF204603B0F0BD4D1E04690EFB81
:109C90000255A542EAD8DCF81040A44603B0BDE85E
:109CA000F0406047174A184B10881949194A09248F
:109CB000000440F001000094FCF79EFF204603B032
:109CC000F0BD104A104B1088134AD3E70D4A0E4BD3
:109CD00010880F49114A0E24000440F0010000943E
:109CE000FCF78AFF2046CEE7064A074B1088084952
:109CF0000B4A0824000440F001000094FCF77CFFAC
:109D00002046C0E79826002064430300A0430300D8
:109D1000F84303003444030078430300F043030096
:109D20007844030018B103680BB1DB69184770B5BC
:109D30000D4C0E4D0E4B2D1BA3FB05352D0910D0E0
:109D400005EB850504EB850501E0AC4209D02368ED
:109D500020461434002BF8D0DB6998470028F4D053
:109D600070BD002070BD00BFAC260020C0260020C2
:109D7000CDCCCCCC29DF704728DF70470846704730
:109D800000207047024B187A003018BF012070473E
:109D9000EC2E0020034B187A0122B0FA80F05A749E
:109DA00040097047EC2E002008B510461A460AF00C
:109DB00044F8002008BD00BF08B514220021044863
:109DC0000AF046F80348FFF727F9002008BD00BF56
:109DD000EC2E00204C22002010B5094C094B4360AA
:109DE0002046FFF769FA40B909F050FE1C232074A1
:109DF0008C2205490548FFF7F7F8002010BD00BF89
:109E0000EC2E00202C450300602E00204C22002068
:109E100030B55E4C237A87B0002B3AD05C4B1B6880
:109E2000022222721A79002A3ED0012A0CD1D3E9EB
:109E300003021044FFF7A0FF002849D0112803D1E6
:109E40000123237207B030BD19688A68C2B10022AD
:109E500068460092C0E902220325026101959A68D2
:109E600005921A79002A4BD0012A07D102228DF8D7
:109E70000020DA68120302925B6904938B689847AA
:109E800000234449444823726360FFF751F907B047
:109E900030BD40494048FFF71DF93D4A0346106078
:109EA0000028BDD16060F2E7D3E90525521BB2F569
:109EB000805F28BF4FF48052D3E903109208012A33
:109EC00038BF012229442844FFF754FF0028B5D1A8
:109ED000227C002ADBD1227A002AD8D0022A0AD199
:109EE000E0601A79DAB1012A05D1D3E904210132FF
:109EF0008A421A611FD0637C73B109F0B7FDC6E7CF
:109F000001228DF800201A690292DA6803925B69D7
:109F100004938B689847B3E7FFF77AFFB7E7D3E975
:109F20000512881AB0F5805F94BF121802F58052AE
:109F300091429A61DFD10022227219688868A8B123
:109F400068460092C0E90122C0E903229A6805929E
:109F50001A7982B1012A07D102228DF80020DA682D
:109F6000120302925B6904938B68984709490A4877
:109F7000FFF7DEF8BFE701228DF800201A69029290
:109F8000DA6803925B690493EEE700BFEC2E0020D1
:109F9000042F0020002F00204C2200202DE9F04744
:109FA00082B082468946174801A990461F46FFF7AE
:109FB00055F810B3044600211C220D46124E09F03C
:109FC00047FF0A9BC4F800A0A360C4E90389676146
:109FD00001A925710B48FFF76DF8301DFFF76CF9EB
:109FE00038B9747C34B9FFF713FF204602B0BDE8DE
:109FF000F087284602B0BDE8F087042002B0BDE833
:10A00000F08700BF4C220020EC2E00202DE9F04309
:10A0100083B081460D46164801A917469846FFF7BA
:10A020001DF808B304461C22002109F011FF114E4F
:10A03000C4F8009001232D0BC4E90285676101A9D2
:10A0400023710B48FFF736F8301DFFF735F938B9A3
:10A05000747C34B9FFF7DCFE204603B0BDE8F08322
:10A06000002003B0BDE8F083042003B0BDE8F08316
:10A070004C220020EC2E002000F0FD03012B00D02C
:10A08000704730B5604CA0F10100B0FA80F0237A3F
:10A090004009002287B020746274002B3AD05B4BD9
:10A0A0001B68022222721A79002A3ED0012A0CD1A2
:10A0B000D3E903021044FFF75FFE002849D01128BE
:10A0C00003D10123237207B030BD19688A68C2B179
:10A0D000002268460092C0E9022203250261019530
:10A0E0009A6805921A79002A4BD0012A07D10222D8
:10A0F0008DF80020DA68120302925B6904938B6882
:10A10000984700234249434823726360FFF710F8E1
:10A1100007B030BD3E493F48FEF7DCFF3B4A0346EF
:10A1200010600028BDD16060F2E7D3E90525521B1D
:10A13000B2F5805F28BF4FF48052D3E90310920834
:10A14000012A38BF012229442844FFF713FE0028C2
:10A15000B5D1227C002ADBD1227A002AD8D0022A6B
:10A160000AD1E0601A79CAB1012A05D1D3E90421E4
:10A1700001328A421A611DD0637C63B109F076FC1A
:10A18000C6E701228DF800201A690292DA6803926C
:10A190005B690493B3E7FFF73BFEB9E7D3E9051228
:10A1A000881AB0F5805F94BF121802F58052914270
:10A1B0009A61E1D10022227219688868A8B16846C4
:10A1C0000092C0E90122C0E903229A6805921A7937
:10A1D00082B1012A07D102228DF80020DA68120329
:10A1E00002925B6904938B68984709490948FEF716
:10A1F0009FFFC1E701228DF800201A690292DA68F8
:10A2000003925B690493EEE7EC2E0020042F0020FC
:10A21000002F00204C220020831E012B00D9704704
:10A2200030B58E4C237A87B0002B31D0022B2BD146
:10A2300003286BD1E3680133082B79D9884B0022BE
:10A240001B68E26022720D2519688A68C2B100227B
:10A2500068460092C0E90222026101959A6805925F
:10A260001A79002A00F0B980012A07D102228DF85C
:10A270000020DA68120302925B6904938B689847A6
:10A2800078497948FEF754FF637C1BB109F0EEFB77
:10A2900007B030BD237A002B5BD0714B1B680222C4
:10A2A00022721A79002A5FD0012A0BD1D3E9030266
:10A2B0001044FFF761FD002869D0112802D1012365
:10A2C0002372E5E719688A68C2B1002268460092E5
:10A2D000C0E902220325026101959A6805921A7964
:10A2E000002A70D0012A07D102228DF80020DA68F6
:10A2F000120302925B6904938B68984700235949C3
:10A30000594823726360FEF713FFC1E7544B0022E4
:10A310001B68E2601A796AB1012AB5D1D3E9042138
:10A3200001328A421A6111D0637C002BAED1B4E7AE
:10A33000E360F9E7D3E90512881AB0F5805F94BFAE
:10A34000121802F5805291429A61EDD100252572D2
:10A350007AE744494448FEF7BDFE414A034610608F
:10A3600000289CD1606093E7D3E90525521BB2F524
:10A37000805FD3E9031028BF4FF480529208012A6E
:10A3800038BF012229442844FFF7F4FC93E7227CDC
:10A39000002A7FF47DAF227A002A3FF479AF022AA7
:10A3A0000AD1E0601A7912B3012A05D1D3E9042158
:10A3B00001328A421A6126D0637C002B7FF466AF9B
:10A3C000FFF726FD64E701228DF800201A6902924A
:10A3D000DA6803925B6904938EE701228DF800200E
:10A3E0001A690292DA6803925B69049346E7D3E93B
:10A3F0000512881AB0F5805F94BF121802F58052DA
:10A4000091429A61D8D10022227219688868A8B155
:10A4100068460092C0E90122C0E903229A680592C9
:10A420001A7982B1012A07D102228DF80020DA6858
:10A43000120302925B6904938B68984709490A48A2
:10A44000FEF776FEB8E701228DF800201A69029225
:10A45000DA6803925B690493EEE700BFEC2E0020FC
:10A46000042F0020002F00204C220020FEF748BFC0
:10A470002DE9F041858ACE1C043D2E440746B6FBEB
:10A48000F5F6FEF759FF78B3F6B24FF48073013E4C
:10A490000446C5800760838027D08046002509E0F8
:10A4A0006379AE4203F101036371C8F800000760ED
:10A4B00080461AD03846FEF73FFF01350028EFD11D
:10A4C0006679721E14D02346013082421B68FBD18C
:10A4D0001F684EB1002523682146013538461C46C9
:10A4E000FEF752FFAE42F6D100242046BDE8F081CF
:10A4F0002768EFE704300121FEF7C6BEF8B5012159
:10A5000004460430FEF7CCFEC0B200B1F8BD667957
:10A51000721E12D02346013082421B68FBD11F6895
:10A52000002EF3D0002523682146013538461C460D
:10A53000FEF72AFFAE42F6D1F8BD2768F2E700BF6A
:10A540002DE9F8430446181DE688B0FBF6F30F46E4
:10A55000904606FB130013B1013B2468FCD1351A69
:10A56000454528BF4546B8F1000F15D04FF000090A
:10A570000430A8EB050820442A4607EB090109F03E
:10A580005CFC4645A944246835464FF0000028BFCE
:10A590004546B8F1000FEBD1BDE8F8832DE9F8434B
:10A5A000C688043304460F46B3FBF6F0904606FB1C
:10A5B000103110B101382468FCD1751A454528BF07
:10A5C0004546B8F1000F15D04FF000090431214481
:10A5D000A8EB05082A4607EB090009F02EFC4645C2
:10A5E000A944246835464FF0000128BF4546B8F11C
:10A5F000000FEBD1BDE8F88341DF7047064A074BF7
:10A6000010B5002414701C60BFF35F8F0449054827
:10A6100000F032F8204610BD102F0020142F00202B
:10A6200068450300082F002000B583B002A800236E
:10A6300000F8013DFDF756F9F1EE103A23F09F03C3
:10A64000E1EE103ABFF35F8F0A4B4022C3F884213A
:10A650009DF80700FDF76CF909F018FA28B920BF3A
:10A6600040BF20BF03B05DF804FBFFF7C5FF03B098
:10A670005DF804FB00E100E001600B6843604A689C
:10A68000934204BF00234360704700BF436843B157
:10A69000026891680B4443605268934204BF0023F0
:10A6A0004360704730B4184DA5F59472AB1ADB10B7
:10A6B00003EBD3735B1002EBC30152F833309842C3
:10A6C00028BF0C4605D311E052F8333098420CD223
:10A6D00021468B1ADB1003EBD3735B108A4202EB2B
:10A6E000C304F1D3094830BC70470D46984204D9E1
:10A6F00004F10802AA42D9D3F4E76068034B0028AA
:10A7000008BF1846EFE700BFBC46030080450300C2
:10A710000A7B10B4D1E90043002A0ABF2346002275
:10A720000122027103605DF8044B704710B40346C8
:10A7300000791C688A6840B14868011B91420ED9B3
:10A74000A01818605DF8044B70470868211A914200
:10A750000BD8012218601A715DF8044B7047002273
:10A7600018601A715DF8044B7047A01A18605DF804
:10A77000044B704730B4904B1B78062B20D08F4B86
:10A780001B68062B00F085808D4AD2F8883043F490
:10A790007003C2F88830BFF34F8FBFF36F8F4FF055
:10A7A0001023D3F80022002AC0F28681D3F80432A5
:10A7B000002BC0F28181834B834A1A6030BC704702
:10A7C000824B1B681D07DAD1814B1B6803F0F00236
:10A7D000302A00F09E8003F0E003402B00F09980C7
:10A7E0007B4B1B6803F0F003302B00F0B980784BF3
:10A7F0001B6803F0F002302A56D003F0E003402B30
:10A8000052D0734B1B6803F0F003302B00F0B6807E
:10A810006F4B1B6803F0F002302A66D003F0E003B0
:10A82000402B62D06A4B1B6803F0F003302B00F022
:10A83000B580674B1B6803F0F003302B79D0644B75
:10A840001B6803F0F003502B00F0E480604B1B68A2
:10A8500003F0F002302A37D003F0E003402B33D06E
:10A860005B4B1B6803F0F002302A03D003F0E003D7
:10A87000402B84D14FF08043D3F80024D20744BF4B
:10A880006FF00102C3F800244C4B1B68062B7FF4C9
:10A890007BAF504B1B68062B7FF476AF4E4A136894
:10A8A00043F4806313606FE74C4B434A1B68127894
:10A8B0004B49C3F34233062A0B6048D1434B1B6814
:10A8C00019077FF45CAF9CE7464A3B4B12681B7844
:10A8D000454902F04F02062B0A607FF450AF3B4B14
:10A8E0001B6819077FF44BAFBAE74FF08043002293
:10A8F000C3F80C21C3F81021C3F838252E4B1B7860
:10A90000062B7FF43CAF314B1B681B077FF437AF3E
:10A9100088E7364B284A1B6812783549C3F304236D
:10A92000062A0B60EAD1294B1B681C077FF427AF6E
:10A9300056E7304C204A304912783048304B0525D4
:10A94000256001250D6000243F2104601960062A5E
:10A950007FF415AF1D4B1B681C077FF410AF6EE72B
:10A96000154B284A1B7828491160062B7FF407AF46
:10A97000164B1B6818077FF402AF38E723490E4BCC
:10A98000CA681B7822F08072062BCA607FF4F7AE8B
:10A990000E4B1B681A077FF4F2AE39E7064B1C4AD0
:10A9A0001B780321062B11607FF4E9AE074B1B686F
:10A9B0001D077FF4E4AE3CE7E00F00F0300100102B
:10A9C00000ED00E0602200200090D003E40F00F0D2
:10A9D000E80F00F0340100103C1700404402001062
:10A9E0003C05004058020010E40E00402403001013
:10A9F000403501401056004088560040185600402F
:10AA00001456004074C007400DF0ADBAF0ED00E000
:10AA1000A00500404FF08053404AD3F80414C2F818
:10AA20002015D3F80814C2F82415D3F80C14C2F872
:10AA30002815D3F81014C2F82C15D3F81414C2F842
:10AA40003015D3F81814C2F83415D3F81C14C2F812
:10AA50004015D3F82014C2F84415D3F82414C2F8D2
:10AA60004815D3F82814C2F84C15D3F82C14C2F8A2
:10AA70005015D3F83014C2F85415D3F83414C2F872
:10AA80006015D3F83814C2F86415D3F83C14C2F832
:10AA90006815D3F840142248C2F86C15D3F8441452
:10AAA0000378C2F87015062B7FF469AE1D4B1B6846
:10AAB00018077FF464AEC9E61B4B0122C3F80425D6
:10AAC000D3F80024002AFBD04FF01023152216499A
:10AAD000C3F80022D1F80034002BFBD04FF0102235
:10AAE0001521114BC2F80412D3F80024002AFBD020
:10AAF00000220D49C3F80425D1F80034002BFBD007
:10AB0000BFF34F8F09490A4BCA6802F4E06213434E
:10AB1000CB60BFF34F8F00BFFDE700BF00C0004018
:10AB2000E00F00F0E40F00F000E0014000ED00E075
:10AB30000400FA05054A4FF0A043105CD3F8043531
:10AB400023FA00F0C04300F001007047A84A030058
:10AB5000044B195C4FF0A04201238B40C2F80C3526
:10AB6000704700BFA84A0300044B195C4FF0A04295
:10AB700001238B40C2F80835704700BFA84A030084
:10AB80004FF0A0434FF480004FF400014FF080726B
:10AB9000C3F80805C3F80815C3F80825704700BFB7
:10ABA0004FF0A0434FF480004FF400014FF080724B
:10ABB000C3F80C05C3F80C15C3F80C25704700BF8B
:10ABC000074B4FF0A041185CD1F8043501228240B8
:10ABD00022EA03001340C1F80805C1F80C3570479C
:10ABE000A84A03001220704710B570B101280BD19C
:10ABF0000D4C2369A0703BB1D3E9002301202261F1
:10AC000098472369002BF7D110BD074CA368012298
:10AC10006270002BF8D0D3E900230020A26098478F
:10AC2000A368002BF7D1EFE7182F002070B910B5FB
:10AC3000074CA368012262703BB1D3E900230020D6
:10AC4000A2609847A368002BF7D110BD704700BFE2
:10AC5000182F002030B5012883B01CD015D303284D
:10AC600011D100F06BF902A800231F4C00F8013D40
:10AC7000FCF738FEE368013BE360E56865B39DF8E7
:10AC80000700FCF755FE03B030BD184B0122C3F896
:10AC9000802003B030BD02A80023134C00F8013D12
:10ACA000FCF720FE237853B1E3689DF807000133D9
:10ACB0000122E360A270FCF73BFE03B030BD0C48FC
:10ACC0006360A3602361E36000F02AF908F0DEFE10
:10ACD00030B101232370E7E700F044F9A570CEE717
:10ACE00000F02CF9F5E700BF182F002000E100E08C
:10ACF000E9AB020030B585B00478094A094B4568D4
:10AD00008DF80040047AC068039053F82130019513
:10AD10008DF8084052F821106846984705B030BDBC
:10AD20002C2F0020302F002030B585B004784568E6
:10AD30008DF80040D0E90240064A074B039053F8D3
:10AD4000213001958DF8084052F821106846984747
:10AD500005B030BD2C2F0020302F0020F0B51A4B4D
:10AD600006781A4D0C6991F81DE045F82640074613
:10AD7000174803F806E040F826200C4694460FCC0E
:10AD800089B06D460FC594E80F0085E80F00049662
:10AD9000BEF1000F0BD0BCF1000F0E4A694607F15F
:10ADA000040008BF002201F0BFF909B0F0BDBCF1FA
:10ADB000000F094A694607F10C0008BF002200F0A5
:10ADC00081FF09B0F0BD00BFB43700202C2F002058
:10ADD000302F0020F5AC020029AD020030B585B05F
:10ADE000057804798DF800508DF804404579846821
:10ADF0008DF805508DF80640C568084A084B8DF857
:10AE00000750D0E9044053F8213052F82110CDE921
:10AE100002406846984705B030BD00BF342F00207F
:10AE20003C2F00202DE9F04F824690F80090384DDD
:10AE3000384845F829300C46497B40F8292081B034
:10AE4000934669B9344ABBF1000F4B4621460AF1DB
:10AE5000040008BF002201B0BDE8F04F00F01ABDA9
:10AE600023682E4A4FF0A04503F5E07340F20C61D1
:10AE700045F82310636803F5E073012745F82310B4
:10AE8000236807FA03F3C5F80835636807FA03F384
:10AE9000C5F80835236803F5E07340F20D6145F805
:10AEA0002310636803F5E07342EA070845F82310AE
:10AEB0004FF48070C04700266268D5F81035D34043
:10AEC000DB074FF4807020D4236807FA03F3C5F83A
:10AED0000C35C047236807FA03F30136C5F8083577
:10AEE0004FF48070C047092EE6D1626801254FF00B
:10AEF000A04605FA02F2C6F80C254FF48070C04750
:10AF000063689D40C6F808559CE7002EEED199E78E
:10AF1000342F00203C2F0020DDAD0200C04A03008A
:10AF2000054A13792BB9012110605371184611712C
:10AF300070478520704700BF442F0020084B1A68D7
:10AF4000D20706D40122E02183F80013C3F8802140
:10AF50001A604FF080430122C3F81825704700BFE4
:10AF600000E100E0044B01221A604FF08042D2F869
:10AF70001834DB03FBD470470C00004010B5154BB0
:10AF80001A6882B07AB10021134A19601B6850799F
:10AF900000934FF080410123009CC1F8083310B9A1
:10AFA0001168537188470D4B1A6882B100221A60EC
:10AFB0001B6801934FF080420221074B0198C2F8B1
:10AFC00008131B68012002B0BDE81040184702B00A
:10AFD00010BD00BF00010040442F002004010040CC
:10AFE0002DE9F04186B00023A14A01931668012E95
:10AFF00000F054811E469F4B1A68012A00F05D81C3
:10B000009D4B1A68012A00F06A819C4B1A68012A3C
:10B0100000F077819A4B1A68012A00F08481994BDD
:10B020001A68012A00F09181974B1A68012A00F0F2
:10B030009E81964B1A68012A0CD0954B1B68012BF8
:10B0400000F0A58116F0FF0F15D1002E30DB06B001
:10B05000BDE8F0818F4AD2F804231706EDD500220F
:10B060001A601A6804926033049A1B68012B46F038
:10B07000800600F08C81884F00240125A30003F195
:10B080008043354203F5C0434FEA45050BD0D3F862
:10B09000100557F82420D3F81015C0F30420C1F38D
:10B0A000014102B190470134082CE7D1002ECEDADD
:10B0B00000224FF0FF33CDE90223774C012602AF87
:10B0C00094F950305D1C2CD0DBB223F0C00006AAEE
:10B0D0004FEAD00C02EB0C0E03F007021EF80C1C1A
:10B0E00006FA02F211421CD02518990995F9303060
:10B0F00054F82330002B00F09881032900F0988148
:10B100004FEA800C0CF1A04C1EF8145CDCF800E750
:10B110001540CEF3014E40F05C81BEF1030F00F00C
:10B12000DE81002594F95130581C2DD0DBB223F07C
:10B13000C00006AA4FEAD00802EB080E03F0070190
:10B140001EF80C2C06FA01FC12EA0C0F1CD0221877
:10B15000990992F9303054F82330002B00F05B81CC
:10B16000032900F05B81820002F1A0421EF8148CDA
:10B17000D2F800E718EA0C0FCEF3014E40F036810A
:10B18000BEF1030F00F0A68194F95230591C2DD066
:10B19000DBB223F0C00006AA4FEAD00802EB080E8B
:10B1A00003F007011EF80C2C06FA01FC12EA0C0F42
:10B1B0001CD02218990992F9303054F82330002B12
:10B1C00000F03C81032900F03C81820002F1A042A2
:10B1D0001EF8148CD2F800E718EA0C0FCEF3014EDB
:10B1E00040F0E380BEF1030F00F06E8194F953301C
:10B1F0005A1C2DD0DBB223F0C00006AA4FEAD008BB
:10B2000002EB080E03F007011EF80C2C06FA01FCF5
:10B2100012EA0C0F1CD02218990992F9303054F818
:10B220002330002B00F0ED80032900F0ED80820038
:10B2300002F1A0421EF8148CD2F800E718EA0C0FB5
:10B24000CEF3014E40F0BC80BEF1030F00F0008150
:10B25000002D3FF4FCAE4FF0A043019AD3F8103517
:10B2600093423FF4F4AE029A0193039228E700BFA1
:10B270000061004004610040086100400C61004032
:10B280001061004014610040186100401C610040E2
:10B290007C610040006000404C2F00209A49D1F8AA
:10B2A000041311F0010170D0136013680493049B20
:10B2B000964B1A68012A7FF4A3AE934AD2F804236E
:10B2C00097077FF59DAE00221A601B680493049BCC
:10B2D0008F4B1A68012A46F002067FF496AE8A4A1E
:10B2E000D2F8042355077FF590AE00221A601B6840
:10B2F0000493049B874B1A68012A46F004067FF4E6
:10B3000089AE814AD2F8042314077FF583AE002268
:10B310001A601B680493049B7F4B1A68012A46F04D
:10B3200008067FF47CAE784AD2F80423D0067FF575
:10B3300076AE00221A601B680493049B774B1A6850
:10B34000012A46F010067FF46FAE6F4AD2F804234C
:10B3500091067FF569AE00221A601B680493049B76
:10B360006F4B1A68012A46F020067FF462AE664AE7
:10B37000D2F8042352067FF55CAE00221A601B68E7
:10B380000493049B46F0400653E60E4633E6654BB5
:10B3900000221A601B6805934FF0A043059AD3F86A
:10B3A0001035019346F000464CE6BEF1020F7FF4E3
:10B3B0001DAF032963D0002B3FF418AF984715E762
:10B3C000BEF1020F7FF444AF032969D0002B54D1A2
:10B3D0003EE7BEF1020F7FF4A4AE032900F0918096
:10B3E0000025002B3FF49EAE98479BE6BEF1020F6E
:10B3F0007FF4CAAE032956D0002B3FF4C5AE984760
:10B40000C2E603297FF424AF17F8082042EA0C02B1
:10B4100007F808200BE703297FF4B6AE17F80820D9
:10B4200042EA0C0207F808209DE603297FF479AE72
:10B4300017F80C50154307F80C5061E603297FF408
:10B44000D5AE17F8082042EA0C0207F80820BCE63F
:10B450000329BBD14FF4003ED2F800C72CF4403C86
:10B46000C2F800C7D2F800C701354CEA0E0CEDB2A5
:10B47000C2F800C7002B3FF4EEAE9847E8E64FF461
:10B48000403ED2F800C72CF4403CC2F800C7D2F8C6
:10B4900000C701354CEA0E0CEDB2C2F800C78AE7CE
:10B4A0004FF4403ED8E74FF4403ED2F800C72CF4AA
:10B4B000403CC2F800C7D2F800C701354CEA0E0C78
:10B4C000EDB2C2F800C797E703297FF474AF4FF4D9
:10B4D000003ED6E703298FD14FF4003EE5E703296C
:10B4E0007FF47FAF4FF40035DCF8002722F44032C0
:10B4F000CCF80027DCF800272A43CCF800270125E8
:10B500006FE74FF44035EFE7006000400461004012
:10B51000086100400C61004010610040146100406F
:10B52000186100407C610040014B1B68184700BF58
:10B53000A82F0020104B984201D00020704730B552
:10B5400083B002A8002300F8013D0D46FCF7CAF9BC
:10B550000A4B1C7934B19DF80700FCF7E9F911207A
:10B5600003B030BD01229DF807001D601A71FCF781
:10B57000DFF92046F4E700BF00200040A82F00209C
:10B58000034B984203D1034B00221A601A71704793
:10B5900000200040A82F0020F0B54FF040238DB0D0
:10B5A000D3F82421BAB10022C3F82421D3F82421EE
:10B5B0000592059AD3F804216AB9564A0221D06B44
:10B5C000C3F80803D163D26BC3F8042301221A62C3
:10B5D0005A610DB0F0BD4FF040244E4DD4F8043107
:10B5E000002B30D00023C4F8043105F140070FCF01
:10B5F00007AED4F804C13F68CDF810C00FC695F867
:10B600006230049A376095F86420002B36D095F8A4
:10B610004030012B75D0D4F84C150891022B73D112
:10B62000D4F83C3509934FF040230021C3F8601152
:10B63000D3F8600102900298C3F85C11D3F85C3132
:10B640000393039B27E0C4F84831D4F8482195F8C8
:10B6500040300192019A002B3AD105F140070FCFFB
:10B6600007AE0FC695F864203B683360E2B92A4BF9
:10B67000C4F80022EA63C4F8083315E0C4F8603166
:10B68000D4F8601102910299C4F85C31D4F85C31AD
:10B690000393039B42B94FF0402300211E48C3F897
:10B6A0000012E963C3F808034FF04021D1F8C43415
:10B6B000C1F8C43499071DD501238DF818300AB993
:10B6C00085F86320D5E90D3106A898470DB0F0BD87
:10B6D0004FF4007140F202220F4BC4F80012EA63EB
:10B6E000C4F80833EB6BC4F804330123A36023626E
:10B6F0000DB0F0BD13F0040318BF02238DF818300D
:10B70000DDE7D4F83C3508934FF04023D3F84C35AF
:10B7100088E700BFB02F002002029C01F0B55A4B11
:10B72000D3F824218DB0BAB10022C3F82421D3F874
:10B7300024210592059AD3F804216AB9534A0221BB
:10B740009068C3F8080391609268C3F8042301224B
:10B750001A625A610DB0F0BD4B4C4C4DD4F8043117
:10B76000002B2ED00023C4F8043105F10C070FCFB5
:10B7700007AED4F804C13F68CDF810C00FC695F8E5
:10B780002E30049A376095F83020002B33D02B7B75
:10B79000012B71D0D4F84C150891022B6FD1D4F83D
:10B7A0003C15394B09910021C3F86011D3F86001B1
:10B7B00002900298C3F85C11D3F85C310393039BA9
:10B7C00026E0C4F84831D4F848212B7B0192019A35
:10B7D000002B38D105F10C070FCF07AE0FC695F837
:10B7E00030203B683360DAB9294BC4F80022AA60E4
:10B7F000C4F8083314E0C4F86031D4F86011029141
:10B800000299C4F85C31D4F85C310393039B3AB9D4
:10B810001D4B1F480021C3F80012A960C3F808039C
:10B820001949D1F8C434C1F8C43499071DD501238E
:10B830008DF818300AB985F82F20D5E9003106A80F
:10B8400098470DB0F0BD4FF4007140F20222104B4A
:10B85000C4F80012AA60C4F80833AB68C4F8043313
:10B860000123A36023620DB0F0BD13F0040318BFE1
:10B8700002238DF81830DDE7D4F83C350893024BED
:10B88000D3F84C158DE700BF00300040B02F0020EA
:10B8900002029C012DE9F84F06793B4F342404FB4A
:10B8A00006F807EB080999F82D50002D60D11D46C8
:10B8B000364B0C46834653F8261000689246FFF735
:10B8C00039FE002857D147F808A0C9F80800C9F880
:10B8D000045089F82F0089F83000637B89F83230F2
:10B8E00023684FF0A04203F5E07340F20C6142F888
:10B8F0002310636803F5E07342F82310D4E90021B4
:10B90000DBF80030C3F80825C3F80C15A268C3F8AB
:10B910002425BAF1000F23D0DBF80010237B090B9C
:10B920004AB25B01002ADBB228DB02F1604202F579
:10B93000614282F80033DBF80020120B42F3C403AB
:10B9400023F0604323F0030303F1604303F56143F5
:10B9500002F01F02012101FA02F2C3F880211A60ED
:10B96000342303FB0673012283F82D20BDE8F88FF2
:10B970000820BDE8F88F1120BDE8F88F044A01F0D7
:10B980000F010A441376D6E7B02F0020DC4A0300EB
:10B99000FCEC00E0037906490268342000FB031345
:10B9A0000220062183F82D00C2F80015704700BF61
:10B9B000B02F00202DE9F04F02F060448BB0964686
:10B9C000B4F1005F4FF00002CDF81A20CDF8162038
:10B9D000CDF81E20CDF82220ADF8262057D10279CF
:10B9E000DFF820B1046801924FF0340808FB02F838
:10B9F0009A460BEB080C424BC4F808339CF82F30E6
:10BA000003F0FF05002B46D14FF001098DF815100A
:10BA1000CDF818A0CDF820E08DF8149005AF0E46B3
:10BA20000FCF8CF82F90C4F88865C4F80451D4F86F
:10BA3000046102960CF10C060FC6029BC4F8245157
:10BA4000D4F824310393396803988CF8305040F2CD
:10BA500002234FF48052C4F850553160C4F8405569
:10BA6000C4F834E5C4F838A5C4F80022CCF808308E
:10BA7000C4F82090C4F800905BF808309BB1DCF863
:10BA80000830C4F8043328460BB0BDE8F08F10200E
:10BA90000BB0BDE8F08FDCF80830C4F80433112097
:10BAA0000BB0BDE8F08F4A4602E0D4F82411E1B9AA
:10BAB000D4F80431002BF8D0019A342303FB02BBE5
:10BAC000D4F8C434C4F8C43400228BF82F20ABB1AE
:10BAD00013F0020F48F2012048F2022208BF0320AF
