:1000000000000120B5020000DD020000DF02000058
:10001000E1020000E3020000E50200000000000031
:10002000000000000000000000000000E7020000E7
:10003000E902000000000000EB020000ED020000F9
:10004000EF020000EF020000AD190000911B00005C
:100050000D1A0000EF020000EF020000EF020000A6
:10006000EF020000EF020000EF020000EF020000CC
:10007000EF020000EF020000EF020000EF020000BC
:10008000EF020000EF020000EF020000EF020000AC
:10009000EF020000EF020000EF020000EF0200009C
:1000A000EF020000EF020000EF020000EF0200008C
:1000B000EF020000EF02000000000000000000005E
:1000C000EF020000EF020000EF020000EF0200006C
:1000D000EF020000EF020000EF020000000000004D
:1000E0000000000000000000000000000000000010
:1000F0000000000000000000000000000000000000
:1001000000000000000000000000000000000000EF
:1001100000000000000000000000000000000000DF
:1001200000000000000000000000000000000000CF
:1001300000000000000000000000000000000000BF
:1001400000000000000000000000000000000000AF
:10015000000000000000000000000000000000009F
:10016000000000000000000000000000000000008F
:10017000000000000000000000000000000000007F
:10018000000000000000000000000000000000006F
:10019000000000000000000000000000000000005F
:1001A000000000000000000000000000000000004F
:1001B000000000000000000000000000000000003F
:1001C000000000000000000000000000000000002F
:1001D000000000000000000000000000000000001F
:1001E000000000000000000000000000000000000F
:1001F00000000000000000000000000000000000FF
:1002000010B5054C237833B9044B13B10448AFF350
:1002100000800123237010BD1402002000000000A4
:10022000BC34000008B5034B1BB103490348AFF3CE
:10023000008008BD0000000018020020BC3400004F
:10024000154B002B08BF134B9D46A3F5803A0021A8
:100250008B460F461348144A121A02F082FF0F4BC6
:10026000002B00D098470E4B002B00D09847002061
:10027000002104000D000D48002802D00C48AFF307
:10028000008002F01FFF2000290002F059FC02F05C
:1002900005FF00BF00000800000001200000000072
:1002A0000000000014020020580900200000000097
:1002B000000000000649074A074B9B1A03DD043B78
:1002C000C858D050FBDC02F009FDFFF7B9FF000071
:1002D000103500000000002014020020FEE7FEE7B9
:1002E000FEE7FEE7FEE7FEE7FEE7FEE7FEE7FEE7E6
:1002F000F0B595B0002415460F4608461E4601F09D
:10030000BDF9384623460895082205A91A9D099685
:100310000D950A948DF82C400C9401F003FA9DF889
:1003200014308DF81140DDE9061003F00302012AB4
:10033000CDE9020127D0022A04D0384601F0A2F903
:1003400015B0F0BDBDF81650C3F3C2038DF81030E0
:10035000AD090826082D2C4628BF0824334622461E
:100360000EA9384601F0DEF92D1B214608AB02AA82
:100370000EA8264400F028FC002DEBD1384601F0F1
:1003800081F915B0F0BDBDF81460059DC6F3831664
:10039000C3F3C204B2000EA9384608238DF81040FA
:1003A000C5F3952501F0BEF908AB324628460EA9E3
:1003B000009302AB00F062FB384601F063F915B020
:1003C000F0BD00BF014B01221A707047740200207B
:1003D000704700BF00B583B0044B0093044A40232C
:1003E000FFF786FF03B05DF804FB00BFF5030000D4
:1003F0003402002038B50E480E4D03780E4CEB5CED
:100400000025D2B2257053B90C3002F07DF858B9EE
:100410000A4B1B7813B12378002BFCD038BD043075
:1004200002F0B6FA0028F3D000F07AFCF0E700BF43
:100430000000002054090020740200203002002037
:1004400070B51348134A0378D35C88B0DBB90C301D
:1004500001F0F4FF104D0FCD6C460FC495E80F006E
:1004600008AD142645F8206D84E80F0029460022C7
:10047000074801F05BFA08B100F052FC074B00227C
:100480001A7008B070BD043002F01AFAE2E700BF3B
:100490000000002054090020B83100003002002084
:1004A00070B50D4D0FCD88B06C460FC495E80F00A8
:1004B00008AD142645F8206D84E80F002946074A48
:1004C000074801F033FA08B100F02AFC054B01227D
:1004D0001A7008B070BD00BFB8310000C50300003D
:1004E000000000203002002010B5054CFFF7D8FFB7
:1004F0002046042100F080FA0123637210BD00BF82
:1005000014000020F0B5314D85B005F5836000F092
:1005100081FC05F2144000F07DFCD5E9012702EAD8
:100520000704E31C05EB830319788E0701F0040030
:100530000ED0C8B101F00301012935D0022902F122
:100540000200EED15A8800EB921202EA0704E8E7B3
:10055000561C0028EED159881A8806EB911606EB36
:10056000921202EA0704DCE705EB8404531CE168FD
:1005700001913B4005EB830301F003010129DE6893
:1005800002F102041AD0022916D1BDF806309B09E7
:100590000333360C04EB93040D4800F047FC00B124
:1005A0006C60304605B0F0BD1B880232C3F3831384
:1005B0001A4402EA0704B4E70646EDE7BDF8043042
:1005C000C3F38313360C1C44E6E700BF4803002046
:1005D0005C07002008B50E4B0E480022FF21C3F82F
:1005E00018249960C3E90022C3F8142483F8202456
:1005F00001F000F858B9084A084BD21AD20806D0C0
:100600000749034621F8233001339A42FAD108BD45
:1006100048030020F0340000F0340000C034000033
:10062000FC01002021B9134A02EBC00000687047AA
:1006300030B411490F4C091BC90816D00F4B5A880A
:10064000824218BF002205D111E0DD88854203F106
:10065000040305D001329142F7D1002030BC70472D
:1006600004EBC200006830BC70470846F6E720463D
:10067000F8E700BFC0340000F0340000FC010020A7
:10068000094B013903EBC00003290BD8DFE801F067
:1006900002080604022070474079704700797047CD
:1006A0000420704700207047C03400002DE9F84353
:1006B000DFF8D890074600208846D9F8084000F0B7
:1006C00075FBD9E90132D9F80060134401339B1B53
:1006D000012B56D809F21C450121284600F082FB67
:1006E000FFF710FF0146284600F07CFBD9E90132F4
:1006F000D9F80010134401335B1A012BECD90A40DE
:10070000033205230231002049F82230C9F80010D5
:1007100000F054FB00211C4800F05AFB80F310004D
:10072000731C234009EB830300043440033440EA84
:100730001740D86019F8243067F3C50309F824304E
:1007400039F824306FF3891329F8243059F824201C
:1007500068F39F221346012161F301036FF38203C3
:1007600049F8242009F8243099F820341BB906E010
:1007700000F00EF818B1D9E900329A42F8D1BDE87C
:10078000F8833146BBE700BF640700204803002020
:100790002DE9F0478D4D002384B0C5F81834BFF320
:1007A0004F8FD5E901462B680CE037B301F0030108
:1007B00001294ED0022903D15288023404EB92144D
:1007C000A34215D904EA0600C21C05EB8202117887
:1007D00011F0030F01F00407E7D1002FE6D1518893
:1007E0001288013404EB911404EB9214A342E9D86B
:1007F00000206B6004B0BDE8F08705EB8000631C4F
:10080000C2680192334005EB830302F00302DB6808
:100810000293022A04F102087ED0012A1FD0D5F8E3
:10082000104434B1236820469B6898476468002CC4
:10083000F8D1674B67491888000440F00200FFF7C1
:1008400035FFD5E90030C01A18BF012004B0BDE85B
:10085000F08712880234C2F383121444B0E7BDF863
:1008600004205D48C2F38313062B28BF062363F3DD
:10087000891202339900ADF8042000F0BDFE8146D4
:100880000028CCD000F0FAFE3B46082201A94846D9
:1008900000F01AFFBDF8043013F4707F00F093806D
:1008A0006FF0010AAAEB040A082406EA08010331E2
:1008B0002346042205EB8101484600F005FFBDF800
:1008C000043008F101070AEB0702C3F383139342D4
:1008D000B84604F10404E8D8D5F81834002B67D1E1
:1008E000D5F8104454B1637A20464946002B5BD0BA
:1008F00023681B6898476468002CF4D1484600F0D0
:10090000C1FE002000F052FAD5F8183403B96F6028
:10091000002000F053FA94E7BDF806302E489C09F9
:10092000502CA24628BF4FF0500A6AF38F130AF1E9
:100930000801ADF8063000F05FFE814600283FF464
:100940006EAF00F09BFE3B4626EA080701370822FF
:1009500001A94846BF0000F0B7FEBA4519D95FFAB1
:100960008AF34FB306EA0801DB1B033105EB810173
:10097000DEB23A460823484600F0A6FE324607F1AA
:1009800008031649484600F09FFE033408EB94071D
:10099000A2E706EA0801033105EB8101524608236C
:1009A000484600F091FEF0E76468002C9BD1A5E773
:1009B000484600F067FE44E7524608230749484688
:1009C00000F082FEE1E7474686E700BF48030020CB
:1009D0000C020020E4310000F03400005403002039
:1009E000044BD3E900239A4201D0FFF7D1BE002087
:1009F000704700BF4803002030B4154DD5F81044AF
:100A0000002154B1237A8B4213D0234602E01A7A94
:100A10008A420ED05B68002BF9D10172D5F81034F0
:100A20007BB15B684360D5F81034586030BC084631
:100A3000704701310A29E4D14FF0FF31084630BC3C
:100A40007047C5F81004436030BC0846704700BFCB
:100A50004803002038B5084BD3F81044012583F82B
:100A600020543CB12368657220465B6898476468EF
:100A7000002CF7D138BD00BF480300202DE9F04716
:100A800084B01D460C9C002394F80C802373EB88E3
:100A900081460E461746002B40D1297A05290ED0F3
:100AA0006B7AA88873BB404B53F821A00021FFF755
:100AB000B9FD524603463D49204600F023FA062F71
:100AC00009D8DFE807F0046A4249525D330049461D
:100AD000204600F017FA2B7A052B05D06B7A5BB90C
:100AE0003349204600F00EFA204600F0FFF984F862
:100AF0000C8004B0BDE8F0872E4A2F49204600F054
:100B000001FAEDE7FFF7BCFD2C4B2B4953F82020F1
:100B1000204600F0F7F9297AA888C4E7254A009210
:100B20002749284A204600F0EDF9B6E7D6E9041037
:100B3000D6E900230390D6E902070291CDE9000728
:100B40004946204600F0DEF9C5E74946D6E90023CC
:100B5000204600F0D7F9BEE7B168D6E90023204669
:100B60000091494600F0CEF9B5E7D6E90201D6E991
:100B70000023019100904946204600F0C3F9AAE7FE
:100B8000D6E90371B068D6E900230291CDE90007E8
:100B90004946204600F0B6F99DE7326849462046AE
:100BA00000F0B0F997E700BF843200007432000013
:100BB0008032000068320000703200001032000005
:100BC0005032000048320000082900D970472DE952
:100BD000F04F1D46904600232A7B2B7385B0B8F852
:100BE0000630039207460E46002B77D198F808107E
:100BF000052911D098F80930B8F80400002B5FD10E
:100C00003A4B53F821400021FFF70CFD22460346E2
:100C10003749284600F076F9DFF8F4B0DFF8F490B1
:100C2000002405E03A5D013400F06CF9082C09D08D
:100C3000A64249462846F5D85946013400F062F9E3
:100C4000082CF5D12B49DFF8D090DFF8D0B028463A
:100C500000F058F9002411E017F804A002F056FA49
:100C600050445946437813F0970F14BF52462E2232
:100C70002846013400F046F9082C08D0A64249461F
:100C80002846E9D8013400F03DF9082CF6D198F84F
:100C90000830052B02D098F809305BB91649284670
:100CA00000F030F9284600F021F9039B2B7305B0C2
:100CB000BDE8F08F114A1249284600F023F9EDE70C
:100CC000FFF7DEFC0F4B0E4953F82020284600F0BA
:100CD00019F998F80810B8F8040091E7074A00924B
:100CE00009490A4A284600F00DF97FE784320000DE
:100CF0007432000040320000803200006832000090
:100D00007032000010320000503200004832000003
:100D10003C320000343200007C32000044320000DB
:100D200000B585B000230390194601AA44F20100E2
:100D3000CDE9013300F004F805B05DF804FB00BF15
:100D400010B572B6FFF786FEFFF74AFE0028FBD10A
:100D5000104C11492088000440F00100FFF7A6FC68
:100D60000E4B1B68DB0700D500BE20880C49000431
:100D700040F00200FFF79AFCBFF34F8F09490A4B7E
:100D8000CA6802F4E0621343CB60BFF34F8F00BF29
:100D9000FDE700BF0C020020F0320000F0ED00E0A3
:100DA000FC32000000ED00E00400FA0572B6024AD1
:100DB00013680133136070476C070020034A1368FF
:100DC000013B136003B962B6704700BF6C07002097
:100DD00050E8002F0B4640E8003C9CF0000FF7D194
:100DE0001046704750E8003F03EB010240E8002C3A
:100DF0009CF0000FF6D11046704700BF50E8003F4E
:100E0000A3EB010240E8002C9CF0000FF6D1104645
:100E1000704700BF012350E8002F42EA030C40E86E
:100E200000C191F0000FF6D160467047002350E8F2
:100E300000CF0CEA030240E8002191F0000FF6D148
:100E400060467047B8B130B4D0E90112521A046854
:100E5000D2B2531E2160DBB242B101680A685C1E47
:100E6000551C0D601370E3B2FF2BF6D10368002010
:100E7000187130BC70470E20704700BF38B504466B
:100E80000020FFF793FFD4E900311A688A4215D990
:100E9000511E19602168A3680868A58A12F8012C00
:100EA000E4681B1A0879DBB2984205FB024400D2C1
:100EB0000B710020FFF782FF204638BD0024F8E7C1
:100EC00038B5054600200C46FFF770FF2A68136806
:100ED000591C1160E968AA8A641AB4FBF2F41C7008
:100EE0000020BDE83840FFF769BF00BF826842B10B
:100EF00010B5044643690168006998470023A36060
:100F000010BD70470EB400B582B0039929B102AA92
:100F100004AB42F8043D00F08BF802B05DF804EB3E
:100F200003B070472DE9F84F8846904517460546AF
:100F30001E46DDE90AB175D343464FF00109B3FB04
:100F4000F7F39F4209F10109F9D9B14538BFB1461C
:100F500011F0010AAA6802D1BBF1000F43D10124AC
:100F600002E0013E07FB04F4012EFAD8B8FBF4F1CD
:100F70008F42F7D92D4E05E0B4FBF7F4A4B1B8FBCE
:100F8000F4F1AA68705C531CAB602B689854D5E9E7
:100F900001329A4204FB1188EED32846FFF7A6FFE0
:100FA000B4FBF7F4002CEAD1BAF1000F15D0BBF175
:100FB000000F12D0CB4510D92024AB682A68591CE9
:100FC000A960D454D5E901329A420BF1FF3B06D215
:100FD000BBF1000F01D0CB45EFD1BDE8F88F28461B
:100FE000FFF784FFF4E78B0717D42024CB45B6D94D
:100FF0002B68511CA9609C54D5E901329A420BF12F
:10100000FF3B05D2BBF1000FA9D0CB45F0D1A6E73D
:101010002846FFF76BFFAA68F4E7002E0CBF3024C8
:101020002024E3E74FF001098FE700BF0C330000F5
:10103000002900F0F4812DE9F04F054685B0924675
:101040000C460B78DFF8A8B501E0237893B10134A2
:1010500083B1252B15D0AA682968501CA8608B5431
:10106000D5E901329A42F0D32846FFF73FFF2378B3
:10107000002BECD12B7B002B40F0148105B0BDE898
:10108000F08F2146002711F8012B2D2A00F0E18076
:10109000302A00F0E2802B2A00F0D2802A2A00F0C9
:1010A000E080A2F13006F3B2092B03D9B8E1A3F135
:1010B00030060146084606EB860310F8012BA2F124
:1010C0003004092C02EB4303F1D92E2A00F0D5801D
:1010D0000023013101E011F8012B02F0FB00682828
:1010E0000C46F8D0253A532AAFD801A151F822F086
:1010F000B11200004B1000004B1000004B1000001C
:101100004B1000004B1000004B1000004B10000073
:101110004B1000004B1000004B1000004B10000063
:101120004B1000004B1000004B1000004B10000053
:101130004B1000004B1000004B1000004B10000043
:101140004B1000004B1000004B1000004B10000033
:101150004B1000004B1000004B1000004B10000023
:101160004B1000004B1000004B1000004B10000013
:101170004B1000004B1000004B1000004B10000003
:101180004B1000004B1000004B1000004B100000F3
:101190004B1000004B1000004B1000004B100000E3
:1011A0004B1000004B1000004B1000004B100000D3
:1011B0004B1000004B1000004B100000CB12000041
:1011C0004B1000004B1000004B1000004B100000B3
:1011D0004B1000004B1000004B1000004B100000A3
:1011E0004B1000004B100000E51200000713000038
:1011F0004B1000004B1000004B1000004B10000083
:10120000071300004B1000004B1000004B100000B3
:101210004B1000004B1000004B1000005713000053
:101220004B1000004B100000CB1300004B100000CF
:10123000051400004B1000004B100000CB12000002
:1012400047F004070C46214611F8012B2D2A7FF4A4
:101250001FAF47F001070C46F5E747F002070C46C1
:10126000F1E7DAF800301A1DCAF8002062781E682B
:101270002E2A04F102007FF42BAF4A78A2F130034A
:10128000092B00F25081002303EB830302EB43039D
:1012900010F8012FA2F130010929A3F13003F3D98D
:1012A000014616E7284605B0BDE8F04FFFF71EBE21
:1012B000AB682A68591CA9604FF02501D154D5E9C3
:1012C00001329A42FFF4C1AECEE6DAF80020111DD9
:1012D000CAF8001011682846CDE900671022FFF710
:1012E00021FEB2E6DAF80020131DCAF80030AB6820
:1012F00029681278581CA860CA54D5E901329A426C
:10130000FFF4A3AEB0E6DAF80020111DCAF8001011
:10131000D2F8008088EAE872A2EBE872092A4FF05E
:10132000010107DDB148A0FB0202D208092A01F140
:101330000101F7DC994238BF1946894607F00202DD
:10134000002E71D12AB1002B00F04B81FA0700F179
:101350008D8000268AE0DAF80020131DCAF80030DC
:10136000AB6829681768581C3022A860CA54D5E9B0
:101370000123934280F02C812A68581C7821A860B0
:10138000D154D5E90123934280F01D810F2F03D959
:101390003A4612090F2AFCD84FF0805603E036096E
:1013A0003FF453AEAB682968B7FBF6F2581CA8604F
:1013B0001BF80200C854D5E90131994206FB1277A7
:1013C000EDD32846FFF792FDE9E7DAF800301A1D61
:1013D000CAF80020D3F80080FB077ED54746A7EB6C
:1013E000080917F8013B002B5DD0AA682968501C3A
:1013F000A8608B54D5E901329A42F0D32846FFF712
:1014000075FDECE7DAF80020111DCAF8001011682C
:101410002846CDE900670A22FFF784FD15E67047EC
:1014200008460026214650E6B8F1000F01DB780798
:1014300000D5013E02B1CBB1F90717D4002E88D0F8
:10144000B14513D220220393A9682B68481CA860D9
:101450005A54D5E90131994206F1FF365DD2002E8A
:1014600000F0C180B145EFD1039B4E46B8F1000FAB
:10147000C0F296807A070AD5A9684A1CAA602A6831
:101480002B205054D5E90121914280F0968007F03D
:101490000302022A5FD0CDE9006741460A222846AE
:1014A000FFF740FDD1E54E457FF6CFAD202705E0A3
:1014B0004E453FF4CAAD002E3FF4C7ADAB682A6875
:1014C000591CA960D754D5E901329A4206F1FF367A
:1014D000EED32846FFF70AFDEAE7B8F1000F24D063
:1014E000404601F046FE0746BE4220D9FEB14FF00D
:1014F000200902E0BE421AD0CEB1AB682A68591C5E
:10150000A96002F80390D5E901329A4206F1FF364C
:10151000F0D32846FFF7EAFCECE728460292FFF7F3
:10152000E5FC029A9BE70146D2E54746DCE708F175
:10153000FF3818F8013F002B3FF487ADAA682968EF
:10154000501CA8608B54D5E901329A42F1D3284649
:10155000FFF7CCFCEDE7002B9DD1002E3FD0B1452D
:1015600099D2029323464C46B1461E46AA682B6880
:10157000501C4FF03001A8609954D5E901329A42CD
:1015800009F1FF3908D2B9F1000F26D04C45EDD151
:101590003446029B4E467EE72846FFF7A7FCF2E75B
:1015A000A9684A1CAA602A682D205054D5E9012157
:1015B0009142C8F10008FFF46AAF28460293FFF792
:1015C00095FC029B63E72846FFF790FCAB68DDE6DD
:1015D0002846FFF78BFCAB68CEE6029B344600261C
:1015E00059E71E4642E7039BB3E600BFCDCCCCCC07
:1015F0000C330000FFF726BC2DE9F041858ACE1C94
:10160000043D2E440746B6FBF5F6FFF737FC78B3EA
:10161000F6B24FF48073013E0446C58007608380B4
:1016200027D08046002509E06379AE4203F101032B
:101630006371C8F80000076080461AD03846FFF78B
:101640001DFC01350028EFD16679721E14D02346A7
:10165000013082421B68FBD11F684EB10025236810
:101660002146013538461C46FFF72AFCAE42F6D12A
:1016700000242046BDE8F0812768EFE7043001210F
:10168000FFF7B0BBF8B5012104460430FFF7B6FB05
:10169000C0B200B1F8BD6679721E12D02346013087
:1016A00082421B68FBD11F68002EF3D000252368FF
:1016B0002146013538461C46FFF702FCAE42F6D102
:1016C000F8BD2768F2E700BF2DE9F8430446181D6E
:1016D000E688B0FBF6F30F46904606FB130013B105
:1016E000013B2468FCD1351A454528BF4546B8F171
:1016F000000F15D04FF000090430A8EB0508204476
:101700002A4607EB090101F021FD4645A94424685A
:1017100035464FF0000028BF4546B8F1000FEBD129
:10172000BDE8F8832DE9F843C688043304460F4624
:10173000B3FBF6F0904606FB103110B10138246877
:10174000FCD1751A454528BF4546B8F1000F15D0A4
:101750004FF0000904312144A8EB05082A4607EBA5
:10176000090001F0F3FC4645A944246835464FF0D2
:10177000000128BF4546B8F1000FEBD1BDE8F88362
:1017800030B585B0057804798DF800508DF80440A7
:10179000457984688DF805508DF80640C568084A7B
:1017A000084B8DF80750D0E9044053F8213052F827
:1017B0002110CDE902406846984705B030BD00BF12
:1017C00070070020780700202DE9F04F824690F83E
:1017D0000090384D384845F829300C46497B40F890
:1017E000292081B0934669B9344ABBF1000F4B46BA
:1017F00021460AF1040008BF002201B0BDE8F04F05
:1018000000F082BA23682E4A4FF0A04503F5E0733A
:1018100040F20C6145F82310636803F5E07301277B
:1018200045F82310236807FA03F3C5F80835636801
:1018300007FA03F3C5F80835236803F5E07340F2AF
:101840000D6145F82310636803F5E07342EA070869
:1018500045F823104FF48070C04700266268D5F821
:101860001035D340DB074FF4807020D4236807FA8B
:1018700003F3C5F80C35C047236807FA03F30136B4
:10188000C5F808354FF48070C047092EE6D162686C
:1018900001254FF0A04605FA02F2C6F80C254FF4D8
:1018A0008070C04763689D40C6F808559CE7002ECD
:1018B000EED199E77007002078070020811700001B
:1018C0002033000030B585B00478094A094B4568DB
:1018D0008DF80040047AC068039053F821300195D8
:1018E0008DF8084052F821106846984705B030BD81
:1018F000800700208407002030B585B00478456853
:101900008DF80040D0E90240064A074B039053F897
:10191000213001958DF8084052F82110684698470B
:1019200005B030BD8007002084070020F0B51A4BB9
:1019300006781A4D0C6991F81DE045F826400746D7
:10194000174803F806E040F826200C4694460FCCD2
:1019500089B06D460FC594E80F0085E80F00049626
:10196000BEF1000F0BD0BCF1000F0E4A694607F123
:10197000040008BF002200F0C1FE09B0F0BDBCF1B8
:10198000000F094A694607F10C0008BF002200F069
:1019900083FC09B0F0BD00BF54090020800700207F
:1019A00084070020C5180000F9180000014B1B68CF
:1019B000184700BF8807002038B50C4B984201D06B
:1019C000002038BD00200D46FFF7F0F9084B1C79C8
:1019D00024B10020FFF7F2F9112038BD0122204682
:1019E0001D601A71FFF7EAF9204638BD002000405B
:1019F00088070020034B984203D1034B00221A6052
:101A00001A7170470020004088070020F0B54FF0A1
:101A100040238DB0D3F82421BAB10022C3F8242189
:101A2000D3F824210592059AD3F804216AB9564ABD
:101A30000221D06BC3F80803D163D26BC3F804232F
:101A400001221A625A610DB0F0BD4FF040244E4D94
:101A5000D4F80431002B30D00023C4F8043105F150
:101A600040070FCF07AED4F804C13F68CDF810C0CF
:101A70000FC695F86230049A376095F86420002B01
:101A800036D095F84030012B75D0D4F84C1508911C
:101A9000022B73D1D4F83C3509934FF04023002139
:101AA000C3F86011D3F8600102900298C3F85C118A
:101AB000D3F85C310393039B27E0C4F84831D4F892
:101AC000482195F840300192019A002B3AD105F156
:101AD00040070FCF07AE0FC695F864203B68336010
:101AE000E2B92A4BC4F80022EA63C4F8083315E0CF
:101AF000C4F86031D4F8601102910299C4F85C31E5
:101B0000D4F85C310393039B42B94FF0402300218A
:101B10001E48C3F80012E963C3F808034FF04021E0
:101B2000D1F8C434C1F8C43499071DD501238DF808
:101B300018300AB985F86320D5E90D3106A8984711
:101B40000DB0F0BD4FF4007140F202220F4BC4F80B
:101B50000012EA63C4F80833EB6BC4F804330123C2
:101B6000A36023620DB0F0BD13F0040318BF02237D
:101B70008DF81830DDE7D4F83C3508934FF040235A
:101B8000D3F84C3588E700BF9007002002029C0183
:101B9000F0B55A4BD3F824218DB0BAB10022C3F866
:101BA0002421D3F824210592059AD3F804216AB997
:101BB000534A02219068C3F8080391609268C3F801
:101BC000042301221A625A610DB0F0BD4B4C4C4DFA
:101BD000D4F80431002B2ED00023C4F8043105F1D1
:101BE0000C070FCF07AED4F804C13F68CDF810C082
:101BF0000FC695F82E30049A376095F83020002BE8
:101C000033D02B7B012B71D0D4F84C150891022BCB
:101C10006FD1D4F83C15394B09910021C3F86011FC
:101C2000D3F8600102900298C3F85C11D3F85C31DC
:101C30000393039B26E0C4F84831D4F848212B7B5A
:101C40000192019A002B38D105F10C070FCF07AE96
:101C50000FC695F830203B683360DAB9294BC4F8D9
:101C60000022AA60C4F8083314E0C4F86031D4F844
:101C7000601102910299C4F85C31D4F85C3103938D
:101C8000039B3AB91D4B1F480021C3F80012A960FD
:101C9000C3F808031949D1F8C434C1F8C43499070A
:101CA0001DD501238DF818300AB985F82F20D5E904
:101CB000003106A898470DB0F0BD4FF4007140F216
:101CC0000222104BC4F80012AA60C4F80833AB68B3
:101CD000C4F804330123A36023620DB0F0BD13F0F8
:101CE000040318BF02238DF81830DDE7D4F83C3523
:101CF0000893024BD3F84C158DE700BF003000402D
:101D00009007002002029C012DE9F84F06793B4F15
:101D1000342404FB06F807EB080999F82D50002D30
:101D200060D11D46364B0C46834653F8261000689A
:101D30009246FFF741FE002857D147F808A0C9F89E
:101D40000800C9F8045089F82F0089F83000637B37
:101D500089F8323023684FF0A04203F5E07340F277
:101D60000C6142F82310636803F5E07342F8231016
:101D7000D4E90021DBF80030C3F80825C3F80C15BE
:101D8000A268C3F82425BAF1000F23D0DBF80010B5
:101D9000237B090B4AB25B01002ADBB228DB02F18C
:101DA000604202F5614282F80033DBF80020120B3A
:101DB00042F3C40323F0604323F0030303F16043C1
:101DC00003F5614302F01F02012101FA02F2C3F898
:101DD00080211A60342303FB0673012283F82D202F
:101DE000BDE8F88F0820BDE8F88F1120BDE8F88F16
:101DF000044A01F00F010A441376D6E79007002049
:101E00002C330000FCEC00E0037906490268342022
:101E100000FB03130220062183F82D00C2F80015F1
:101E2000704700BF90070020CB6803F06043B3F118
:101E3000005F4ED12DE9F047DFF89C8290F80490C6
:101E40000468A34BC4F80833342707FB098788B01C
:101E500097F82F3003F0FF0A002B3CD112F0140F3B
:101E60000CBF0123002387F82F308E4616460D46FF
:101E7000BEE80F0007F10C0CACE80F00C6F300132E
:101E8000DEF80020CCF8002087F830306B78C4F8FA
:101E90008835C4F804A1D4F804310593059BC4F82F
:101EA00024A1D4F824310693069B16F0010318BF31
:101EB0000123C4F8503516F0020318BF0123C4F8FB
:101EC00040352B78032B00F2FE80DFE803F06C86B0
:101ED0004C0B10207047BB68C4F80433112008B0C5
:101EE000BDE8F0872B6903F06043B3F1005F40F079
:101EF000A8804FF48073C4F80032EB686A68C4F8B5
:101F000044350023C4F84825C4F85031D4F8502192
:101F10000292029AC4F86031D4F860210392039AC5
:101F2000C4F84831D4F8483104930123049A236259
:101F3000A360D4F85031002BFBD00020C4F850012E
:101F4000D4F85021019234232A69A968019FC4F86A
:101F5000442503FB09835F4AC4F848159A604FF48F
:101F6000827108234FE06B68EA68C4F84425C4F81E
:101F700048352B6903F06042B2F1005F61D1342231
:101F800002FB0982A868C4F8343540F202214FF4FC
:101F90008453C4F83805C4F8003200209160082347
:101FA0004FF482712FE06B68EA68C4F84425B106EB
:101FB000C4F848354FF0340303FB098373D44FF45E
:101FC000007140F20222C4F800129A604FF482714C
:101FD000012323620020082315E0EB686968C4F838
:101FE000343534224FF4805302FB0982C4F838158B
:101FF00040F20220C4F800320121002390602162E7
:1020000018464FF48271320704D42A78032A1CBF81
:102010000122E250342303FB09F308EB030258F8D2
:10202000033093B1730744BF4FF4007393603423BC
:1020300003FB0988D8F80830C4F8043308B0BDE8B9
:10204000F087102008B0BDE8F0870125214402E0A8
:10205000D4F82421E2B90B68002BF9D0342303FB18
:102060000988D4F8C434C4F8C434002288F82F2076
:10207000002B3FF434AF13F0020F48F2012048F276
:10208000022208BF032013F0040F18BF104626E7F2
:10209000C4F82431D4F824310793079B25624FF408
:1020A00082716561D2E74FF48072C4F80022094959
:1020B00099600022C4F84821D4F848310093009B6D
:1020C0004FF4A47184E708234FF4827107209AE744
:1020D00002029C01000204009007002030B56C4A07
:1020E000D2F8043399058BB066D5D2F82431002B91
:1020F00062D00023C2F82431D2F8243103934FF484
:102100000171644B0398C2F8081393F8291009B9B8
:10211000012151605E4902228DF81820D1F88024F7
:10212000C1F880249869D96809920022CDE9071086
:10213000C3E90622D3E9001406A8A047544AD2F8FE
:102140001C31BBB1534B186A5969884269D3504856
:102150000022C0F81C21D0F81C010190019849B15F
:1021600098688DF8182008915A610790D3E90012F9
:1021700006A89047464AD2F84431DBB10021454BCE
:10218000C2F84411D2F8440193F829100090009845
:1021900009B1012111609A6962B10022586AD968B7
:1021A0009A610122CDE907108DF8182006A8D3E91D
:1021B000001290470BB030BD354AD2F804335B07AC
:1021C000BCD5D2F80831002BB8D0324B9969002920
:1021D0003CD00021C2F80811D2F8081104910499EA
:1021E000D868596AD2F8182542545A6A9969013256
:1021F0005A625A6A8A42A1D1DA691968002A2ED035
:10220000D8685D6A1C699A61079000220120DC6031
:10221000DA615A628DF8180008955B6806A898473D
:102220008CE793F8280000F0FF0400288FD1C2F853
:102230001C41D2F81C11029102999C68186A196A13
:10224000205C01311962C2F81C0593E7C2F808113D
:10225000D2F8080105900598D2F81825C9E793F837
:10226000292012B90A4A01205060094A4FF401702E
:10227000C2F80803586ADA6808900024012007921F
:102280008DF818005A689C6106A8904756E700BF71
:1022900000200040F80700202DE9F041DFF8988188
:1022A00007792C2606FB078682B096F82A30002B89
:1022B00040F08F800D4604465C4900681646FFF7E3
:1022C0007BFB002840F081802B68591C0CD0012238
:1022D0004FF0A04102FA03F3C1F808352B6803F56B
:1022E000E073032241F823206B685A1C06D003F5E3
:1022F000E0734FF0A042002142F823102368AA693E
:10230000C3F82425297D6B7D22680B43C2F86C3508
:10231000D5E900122368C3F81425C3F80C152B7DEA
:10232000012B5AD02C2303FB07F308EB0302566062
:102330002A6948F80320002E34D022682B7F3C4DB8
:102340000021C2F81C11D2F81C2100922268009EC4
:10235000C2F84411D2F84411226801910199C2F8DF
:1023600004532168090B4AB25B01002ADBB256DB39
:1023700002F1604202F5614282F800332268120BDA
:1023800042F3C40323F0604323F0030303F16043EB
:1023900003F5614302F01F02012101FA02F2C3F8C2
:1023A00080211A602C23246803FB07830022042564
:1023B0000121C4F8005583F82A10C3E9062283F8E6
:1023C00029205A6102B0BDE8F081112002B0BDE8B9
:1023D000F081082002B0BDE8F081AB68591C06D03E
:1023E00003F5E0734FF0A042002142F82310EB68A0
:1023F0005A1C0DD001224FF0A04102FA03F3C1F89C
:102400000835EB6803F5E073032241F82320EB68FD
:102410002268A968C2F80835C2F8101582E7054A93
:1024200001F00F010A441376A8E700BFDD20000089
:1024300080000200FCEC00E0F8070020F8B52F4D0A
:10244000047902682C2303FB045300215B68C2F863
:10245000001583B103682A4AC3F808230368294E8C
:102460001B0B5AB25209203203F01F03012101FA5B
:1024700003F346F8223003684FF0FF32D3F80CC55F
:10248000D3F81475D3F80815D3F81065C3F81425DC
:10249000C3F80C2503689445C3F80825C3F8102534
:1024A00006D00CF5E07C4FF0A043022243F82C202C
:1024B0007B1C06D007F5E0774FF0A043022243F8DB
:1024C0002720721C06D006F5E0764FF0A0430222CA
:1024D00043F826204B1C06D001F5E0714FF0A043D5
:1024E000022243F821200068FFF784FA2C2303FB23
:1024F0000454002384F82A306360F8BDF8070020F4
:102500008402020000E100E0F0B5314E05792C2391
:1025100003FB056385B05C69002C53D11C62996094
:1025200083F828405A610268C2F81C41D2F81C1195
:10253000026802910121029F91600268D3F808C0ED
:10254000C2F81C41D2F81C1101910199D3F820E086
:10255000196A5F681CF80EE001311962C2F81CE5C7
:1025600017B1204605B0F0BD1A6A5C690168944253
:1025700003D819E093F828203ABBD1F81C21002A8F
:10258000F8D0C1F81C71D1F81C210392039AD3F83A
:1025900020E01A6A1CF80EE001321A62C1F81CE54C
:1025A0001A6AA242E9D30168D1F81C31002BFBD092
:1025B0000123CB6000202C2303FB056500236B6106
:1025C00005B0F0BD112005B0F0BD0F20F3E700BF4E
:1025D000F8070020F0B5474BD3F8242189B0002A32
:1025E00054D00021C3F82411D3F8242102920222EE
:1025F0008DF81020029AD3F880043F4AC3F8800473
:102600000790D3F83C05D3688DF81800C2E906118D
:1026100005931168536804A89847364BD3F84421B2
:10262000BAB10020344AC3F84401D3F84441916957
:102630000194019C69B1D3F83C458DF81840D368EA
:10264000906101240593116853688DF8104004A827
:102650009847284BD3F82021B2B10021264AC3F86D
:102660002011D3F8204150690094009C60B1D3F848
:102670004C0593688DF818008DF810105161059382
:1026800004A8D2E90013984709B0F0BDD3F810119F
:102690000029C2D0C3F81021D3F8101116480391B5
:1026A00003998169D3F83C458C42B6D1C569C768A6
:1026B000D0E90016E4B295B1D3F800C285612CF0E0
:1026C0002005C261C3F800520369C36001228DF87E
:1026D000184005978DF8102004A8B0479DE7012306
:1026E00085618DF8184005978DF8103004A8B04723
:1026F00093E700BF00200040240800202DE9F043AC
:1027000007796B4E4FEAC70808EB070306EB830314
:1027100085B093F82030002B40F09E800D46044693
:10272000644900689146FFF747F9002840F090801F
:102730002B68591C0CD001224FF0A04102FA03F380
:10274000C1F808352B6803F5E073032241F8232014
:102750006B685A1C06D003F5E0734FF0A0420021CD
:1027600042F823102368AA69C3F82425297D6A7DCD
:1027700023680A43C3F86C25D5E900312268C2F802
:102780000C35C2F814152B7D012B69D008EB07021C
:102790009200B318C3F804902B69B350B9F1000F3D
:1027A00045D021682B7F444D0022C1F81021D1F87B
:1027B000101100912168DDF800C0C1F82021D1F886
:1027C000201101912168DDF804C0C1F82421D1F85D
:1027D000241102912168DDF808C0C1F84421D1F824
:1027E0004411226803910399C2F804532168090B2C
:1027F0004AB25B01002ADBB254DB02F1604202F50F
:10280000614282F800332268120B42F3C40323F0C2
:10281000604323F0030303F1604303F5614302F0D7
:102820001F02012101FA02F2C3F880211A60474415
:10283000226806EB870600230124082186F8204041
:10284000C2F80015C6E90633736105B0BDE8F08330
:10285000112005B0BDE8F083082005B0BDE8F08385
:10286000AB68591C06D003F5E0734FF0A04200217D
:1028700042F82310EB685A1C0DD001224FF0A04102
:1028800002FA03F3C1F80835EB6803F5E07303229D
:1028900041F82320EB682268A968C2F80835C2F81D
:1028A000101573E7054A01F00F010A441376AAE7F1
:1028B00024080020D525000010030200FCEC00E0F5
:1028C000F8B506792F4C0268F500AB1904EB8303C9
:1028D00000215B68C2F8001583B103682A4AC3F877
:1028E00008230368294F1B0B5AB25209203203F008
:1028F0001F03012101FA03F347F8223003684FF068
:10290000FF32D3F80CE5D3F814C5D3F80815D3F883
:102910001075C3F80C25C3F8142503689645C3F851
:102920000825C3F8102506D00EF5E07E4FF0A04331
:10293000022243F82E20BCF1FF3F06D00CF5E07CCC
:102940004FF0A043022243F82C207A1C06D007F552
:10295000E0774FF0A043022243F827204B1C06D01B
:1029600001F5E0714FF0A043022243F821203544E5
:1029700004EB85040068FFF73DF8002384F820305D
:102980006360F8BD240800201003020000E100E0AD
:1029900001F06043B3F1005F2CD1F0B50679234F0D
:1029A0004FEAC60C0CEB060407EB840483B06369A2
:1029B00013BBA16062610568C5F82031D5F820E13C
:1029C0000568CDF804E0DDF804E0C5F85831D5F825
:1029D00058E10568CDF800E0DDF800E0C5F84415E1
:1029E000C5F8482502680121916062683AB118462D
:1029F00003B0F0BD10207047112003B0F0BD036894
:102A000000E08AB9D3F82011D3F858210029F8D072
:102A1000002A14BF0F2000200CEB060307EB8303F2
:102A200000225A6103B0F0BD0F20F5E72408002012
:102A3000037813B9014B01221A7070475009002026
:102A4000037813B9014B01221A707047480800201F
:102A500070B5174D174C2B78174E184886B0002BC1
:102A60000CBF1A2186210023029101211A462370EE
:102A7000039305938DF80410422301A904968DF861
:102A80000530FFF7D1F920BF2378002BFBD058B9D0
:102A900033781BB90A4A1368013313602B780BB1E2
:102AA00000232B7006B070BDFEF73AF9F0E700BFC7
:102AB00049080020500900204C080020A0330000E5
:102AC0004C09002070B588B000224FF0CC71022074
:102AD0000C240392079213460B26112500940291B1
:102AE000122406918DF80C008DF81C000E4A0F4838
:102AF00001966946CDE90454FEF766FE80B90023CD
:102B00000B4A0C4804A9FEF75FFE08B1FEF708F96E
:102B10000948FFF779F90948FFF776F908B070BD61
:102B2000FEF7FEF8EBE700BF312A00009C330000FF
:102B3000412A000058330000A03300005C3300003D
:102B4000DFF88CA12DE988484FF4004101230020D3
:102B50008AF80030FDF73EFD08B1FEF7E1F8FDF719
:102B6000C3FCFFF7AFFF4FF0A04303224FF4004038
:102B70004FF48031534CC3F83C27C3F80C05C3F81D
:102B800040270C20C3F80C154FF40051C3F8380748
:102B900044F00104C3F834272825C3F80C154FF47A
:102BA0007A40A047013DFAD14FF0A0434FF40052C4
:102BB000C3F8082528254FF47A40A047013DFAD1F3
:102BC000FFF746FFA3254FF47A40A047013DFAD115
:102BD000DFF800913C49B9F80000000440F0030020
:102BE000FDF764FDB9F800003849000440F0030027
:102BF000FDF75CFDFDF7F4FE0028FBD1DFF8D8807F
:102C0000DFF8C4B04FF0A046032702E04FF448506D
:102C1000A047D6F810355B0442D54FF48033C6F890
:102C20000C35D8F80030182BF0DD01254FF40040AA
:102C30004FF480310C224FF400538AF80050C6F84C
:102C40003C772825C6F80C05C6F84077C6F80C1561
:102C5000C6F83827C6F83477C6F80C354FF47A40F2
:102C6000A047013DFAD14FF40053C6F80835282596
:102C70004FF47A40A047013DFAD1FFF7E9FEA325C2
:102C80004FF47A40A047013DFAD1B9F800000004A2
:102C900040F003005946FDF709FDC8F80050B5E7BC
:102CA0004FF48045C6F83877C6F80C55FFF7D0FECC
:102CB0000C224FF48033C6F80855C6F83827C6F8FA
:102CC0000835AEE750330000683300008033000061
:102CD000490800200C0200204C09002030B4904B21
:102CE0001B78062B20D08F4B1B68062B00F08580AD
:102CF0008D4AD2F8883043F47003C2F88830BFF3AD
:102D00004F8FBFF36F8F4FF01023D3F80022002AAC
:102D1000C0F28681D3F80432002BC0F28181834B4C
:102D2000834A1A6030BC7047824B1B681D07DAD19A
:102D3000814B1B6803F0F002302A00F09E8003F004
:102D4000E003402B00F099807B4B1B6803F0F003FD
:102D5000302B00F0B980784B1B6803F0F002302A6A
:102D600056D003F0E003402B52D0734B1B6803F0A6
:102D7000F003302B00F0B6806F4B1B6803F0F002BD
:102D8000302A66D003F0E003402B62D06A4B1B6808
:102D900003F0F003302B00F0B580674B1B6803F0A5
:102DA000F003302B79D0644B1B6803F0F003502BF9
:102DB00000F0E480604B1B6803F0F002302A37D04B
:102DC00003F0E003402B33D05B4B1B6803F0F002B1
:102DD000302A03D003F0E003402B84D14FF080432E
:102DE000D3F80024D20744BF6FF00102C3F80024D7
:102DF0004C4B1B68062B7FF47BAF504B1B68062B9C
:102E00007FF476AF4E4A136843F4806313606FE734
:102E10004C4B434A1B6812784B49C3F34233062A92
:102E20000B6048D1434B1B6819077FF45CAF9CE7EC
:102E3000464A3B4B12681B78454902F04F02062B6D
:102E40000A607FF450AF3B4B1B6819077FF44BAF10
:102E5000BAE74FF080430022C3F80C21C3F81021D9
:102E6000C3F838252E4B1B78062B7FF43CAF314B33
:102E70001B681B077FF437AF88E7364B284A1B686F
:102E800012783549C3F30423062A0B60EAD1294B93
:102E90001B681C077FF427AF56E7304C204A3049A7
:102EA00012783048304B0525256001250D6000243F
:102EB0003F2104601960062A7FF415AF1D4B1B6883
:102EC0001C077FF410AF6EE7154B284A1B78284982
:102ED0001160062B7FF407AF164B1B6818077FF4B1
:102EE00002AF38E723490E4BCA681B7822F0807284
:102EF000062BCA607FF4F7AE0E4B1B681A077FF4EF
:102F0000F2AE39E7064B1C4A1B780321062B1160F1
:102F10007FF4E9AE074B1B681D077FF4E4AE3CE786
:102F2000E00F00F03001001000ED00E02000002074
:102F30000090D003E40F00F0E80F00F0340100101F
:102F40003C170040440200103C05004058020010AD
:102F5000E40E0040240300104035014010560040AC
:102F600088560040185600401456004074C0074070
:102F70000DF0ADBAF0ED00E0A00500404FF0805339
:102F8000404AD3F80414C2F82015D3F80814C2F844
:102F90002415D3F80C14C2F82815D3F81014C2F86D
:102FA0002C15D3F81414C2F83015D3F81814C2F83D
:102FB0003415D3F81C14C2F84015D3F82014C2F805
:102FC0004415D3F82414C2F84815D3F82814C2F8CD
:102FD0004C15D3F82C14C2F85015D3F83014C2F89D
:102FE0005415D3F83414C2F86015D3F83814C2F865
:102FF0006415D3F83C14C2F86815D3F8401422487D
:10300000C2F86C15D3F844140378C2F87015062B77
:103010007FF469AE1D4B1B6818077FF464AEC9E6E8
:103020001B4B0122C3F80425D3F80024002AFBD04F
:103030004FF0102315221649C3F80022D1F80034AE
:10304000002BFBD04FF010221521114BC2F80412B7
:10305000D3F80024002AFBD000220D49C3F8042530
:10306000D1F80034002BFBD0BFF34F8F09490A4B36
:10307000CA6802F4E0621343CB60BFF34F8F00BF16
:10308000FDE700BF00C00040E00F00F0E40F00F0DB
:1030900000E0014000ED00E00400FA0508B5074B30
:1030A000044613B10021AFF30080054B1868836A12
:1030B00003B19847204600F071F800BF00000000FF
:1030C000AC33000070B50D4E0D4CA41BA4100025B0
:1030D000A54209D10B4E0C4C00F062F8A41BA410C1
:1030E0000025A54205D170BD56F825309847013519
:1030F000EEE756F8253098470135F2E7F401002055
:10310000F4010020F4010020F8010020044B054ADE
:103110001B681B6A002B08BF1346D3F8EC007047EE
:10312000240000208800002082B001B901A942B12A
:103130004BB113780B601278101C18BF012002B03D
:1031400070471046FBE76FF00100F8E710B5431E2B
:103150000A44914200D110BD11F8014B03F8014F10
:10316000F7E702440346934200D1704703F8011B7E
:10317000F9E7034613F8012B002AFBD1181A01388E
:10318000704749B1FF2A85BF8A2303600A704FF058
:10319000FF3098BF0120704708467047FEE700BF28
:1031A000F8B500BFF8BC08BC9E467047F8B500BF34
:1031B000F8BC08BC9E467047FFFFFFFFFFFFFFFF04
:1031C000FFFFFFFFFFFFFFFF000000000000000007
:1031D0000000D60107010000D503000041040000F3
:1031E000D10300004261636B656E647320666C7589
:1031F00073686564000000006170700062616C6C4F
:103200006F632E6C6F675F6D656D706F6F6C000024
:10321000683200009832000048320000A0320000FE
:10322000A8320000B0320000B8320000C032000006
:10323000C832000020253032780000002020200015
:103240007C000000256300001B5B313B33316D00C7
:1032500025734C6F67732064726F707065642028EB
:1032600025642925730D0A001B5B306D00000000EA
:10327000257300003C25733E2025733A2000000092
:103280000D0A000000000000D0320000D83200001B
:10329000E0320000E83200001B5B313B33306D0050
:1032A0001B5B313B33326D001B5B313B33336D00B5
:1032B0001B5B313B33346D001B5B313B33356D00A1
:1032C0001B5B313B33366D001B5B313B33376D008D
:1032D0006572726F720000007761726E696E6700CE
:1032E000696E666F0000000064656275670000002B
:1032F000466174616C206572726F720053797374E9
:10330000656D2072657365740000000030313233E2
:1033100034353637383941424344454600000000D1
:103320000338FDD87047000050525300911B000035
:103330000D1A00005457494D0000000055415254E9
:1033400000000000554152544500000000000000FC
:103350000338FDD870470000010000000040004025
:1033600001000000010000004D474333313330209D
:10337000496E69742046696E69736865640000006F
:10338000484944204D6F757365206578616D706C98
:103390006520737461727465642E00000000000083
:1033A0000030004000000000010000002800002064
:1033B0004300504F534958002E0000202020202069
:1033C00020202020282828282820202020202020D5
:1033D00020202020202020202020208810101010C5
:1033E0001010101010101010101010040404040419
:1033F0000404040404101010101010104141414145
:10340000414101010101010101010101010101012C
:10341000010101010101101010101010424242423E
:1034200042420202020202020202020202020202FC
:103430000202020202021010101020000000000020
:10344000000000000000000000000000000000007C
:10345000000000000000000000000000000000006C
:10346000000000000000000000000000000000005C
:10347000000000000000000000000000000000004C
:10348000000000000000000000000000000000003C
:10349000000000000000000000000000000000002C
:1034A000000000000000000000000000000000001C
:1034B000000000000000000000000000000000000C
:1034C000283300000000000034330000000000003A
:1034D0003C33000000000000443300000000000006
:1034E000F831000000000303FC310000000000037D
:1034F00078020020400300204803002080020020C2
:08350000100200201800000079
:0835080038CDFF7F0100000037
:1035100000000000002000400000000000200040EB
:1035200000000000D8310000000000000000000092
:103530000090D003280000200000000000000000E0
:10354000000000000000000000000000000000007B
:10355000000000000000000000000000000000006B
:10356000000000000000000000000000000000005B
:10357000000000000000000000000000000000004B
:10358000000000000000000000000000000000003B
:1035900000000000000000004300000000000000E8
:1035A000000000000000000000000000000000001B
:1035B00000000000000000004300000000000000C8
:1035C00000000000000000000000000000000000FB
:1035D00000000000000000004300000000000000A8
:1035E00000000000000000000000000000000000DB
:1035F0000000000000000000430000000000000088
:1036000000000000000000000000000000000000BA
:103610000000000000000000430000000000000067
:10362000000000000000000000000000000000009A
:103630000000000000000000430000000000000047
:10364000000000000000000000000000000000007A
:103650000000000000000000430000000000000027
:10366000000000000000000000000000000000005A
:10367000000000000000000083310000293100003C
:1036800000000000BA330000B8330000B933000076
:10369000B9330000B9330000B9330000B93300007A
:1036A000B9330000B9330000B9330000B93300006A
:1036B000FFFFFFFFFFFFFFFFFFFFFFFFFFFF000018
:1036C0000100415343494900000000000000000090
:1036D00000000000000000000000000000000000EA
:1036E0000000415343494900000000000000000071
:1036F00000000000000000000000000000000000CA
:0C37000000000000250200000102000093
:10370C0000000000000000000000000000000000AD
:08371C000000000000000000A5
:04000003000002B542
:00000001FF
